:100000000C946B010C947D010C947D010C94F12BEC
:100010000C94B92B0C947D010C947D010C947D0102
:100020000C947D010C947D010C947D010C94362C74
:100030000C947D010C947D010C947D010C947D0148
:100040000C94202C0C947D010C94562E0C94162F9D
:100050000C947D010C947D010C947D010C947D0128
:100060000C947D010C947D01084AD73B3BCE016E78
:1000700084BCBFFDC12F3D6C74319ABD56833DDAFF
:100080003D00C77F11BED9E4BB4C3E916BAAAABE0E
:10009000000000803F05A84CCDB2D44EB93836A937
:1000A000020C50B9918688083CA6AAAA2ABE000074
:1000B00000803F000D0A4772626C20312E336C7352
:1000C000205B27242720666F722068656C705D0DA9
:1000D0000A00244E005B4F50543A005B5645523A9A
:1000E000312E336C732E32303235303131373A00A5
:1000F0005B544C4F3A005B4739323A0033300032A0
:1001000038005B4700204700204D00204600205467
:100110000033382E005B47433A47005B484C503A67
:10012000242420242320244720244920244E202432
:10013000783D76616C20244E783D6C696E65202494
:100140004A3D6C696E652024534C50202443202482
:1001500058202448207E2021203F206374726C2D7B
:10016000785D0D0A00414C41524D3A007C413A0005
:100170007C4F763A007C57434F3A007C506E3A00F1
:100180007C463A007C42663A007C57506F733A00D6
:100190007C4D506F733A00536C65657000446F6F0F
:1001A000723A00436865636B00416C61726D004890
:1001B0006F6D65004A6F6700486F6C643A00527556
:1001C0006E0049646C6500CFF7FB42CFF7FB423FFE
:1001D0005585430020EE450020EE4500206E450089
:1001E00055574A0055574A0055574A000048C30022
:1001F0000048C3000048C30A0003FF000AD7233C9D
:100200006F12033B00007A44000000000100000070
:1002100000C8410000FA43FA000000803F0D0A00C8
:100220005B5052423A006572726F723A006F6B70A7
:100230000D0A006F6B0D0A00536C656570696E677F
:1002400000526573746F72696E67207370696E64B3
:100250006C6500526573746F72696E6720646566C1
:1002600061756C74730050676D20456E640043685F
:1002700065636B204C696D69747300436865636BDB
:1002800020446F6F720044697361626C656400455D
:100290006E61626C65640043617574696F6E3A20CB
:1002A000556E6C6F636B656400272448277C272498
:1002B000582720746F20756E6C6F636B00526573E6
:1002C000657420746F20636F6E74696E7565005B72
:1002D0004D53473A000011241FBECFEFD8E0DEBFD8
:1002E000CDBF27E0A0E0B1E001C01D92A031B20770
:1002F000E1F70E94402F0C94A0390C9400008F92DB
:100300009F92AF92BF92CF92DF92EF92FF920F93A4
:100310001F93CF93DF937C016B01DC01EC91F0E044
:10032000E054F94F8081EF018D3229F522968181C9
:1003300001E0912CF0E010E020E030E0A9015E0146
:10034000E0EDE80FEA3018F5FF5FF930E0F49110C6
:100350001150A5E0B0E00E9479399B01AC01220F59
:10036000331F441F551F2E0F311D411D511D219656
:10037000D5018C91E4CF8B3219F0219600E0D9CFD2
:1003800022968181FBCF9110F2CF1F5FF0CFEE3F1D
:1003900029F4911003C099249394E9CFFF23F9F035
:1003A000CA01B9010E9478364B015C0120E030E0BF
:1003B000A9010E94C63581112BC0002309F445C054
:1003C000B7FAB094B7F8B094F60180829182A28215
:1003D000B382C05CD640C150F701C083F1E08F2FDB
:1003E000DF91CF911F910F91FF90EF90DF90CF9011
:1003F000BF90AF909F908F9008952AE037ED43E231
:100400005CE3C501B4010E9428384B015C011E5F0A
:100410001F3F9CF31F3F59F42DEC3CEC4CEC5DE38B
:10042000C501B4010E9428384B015C01C6CF1123DD
:1004300021F220E030E040E251E4C501B4010E9425
:1004400028384B015C011150F2CFD6018D929D925C
:10045000AD92BC921397BDCF1092DD053D9A459A9F
:1004600008952FB7F8949091C205892B8093C20507
:100470002FBF08952FB7F8949091C105892B8093D1
:10048000C1052FBF08952FB7F8949091C005892B0F
:100490008093C0052FBF08959FB7F8948093BF0540
:1004A0009FBF08959FB7F8942091BE058095822341
:1004B0008093BE059FBF08952FB7F8949091BE0515
:1004C000892B8093BE052FBF0895AF92BF92CF9224
:1004D000DF92EF92FF920F931F93CF93DF93EC0184
:1004E00002E116E05C018CE0A80EB11CC990D99025
:1004F000E990F99020E030E0A901C701B6010E941F
:10050000E8371816DCF0F8012191319141915191B1
:100510008F01C701B6010E94C63587FD0FC0CA15FD
:10052000DB0521F780E0DF91CF911F910F91FF90C4
:10053000EF90DF90CF90BF90AF90089581E0F3CF20
:100540008F929F92AF92BF92CF92DF92EF92FF92E3
:100550000F931F93CF93DF93EB012EEEE22E25E056
:10056000F22E8C016B018CE0C80ED11C699179913F
:1005700089919991F70181909190A190B1907F011B
:100580000E947A36A50194010E94D035F80161934A
:100590007193819391938F01CC15DD0539F7DF912C
:1005A000CF911F910F91FF90EF90DF90CF90BF9070
:1005B000AF909F908F90089596B1892F837229F004
:1005C000892F8095817091FF826008951092C305F4
:1005D0009091330697FD03C094E09093C305882360
:1005E00031F08091C30594E089278093C305089575
:1005F00093B18091330686FF0BC09E7059F091FB3A
:10060000882780F992FD8260987029F084600895AF
:100610009095F3CF80E00895EBE6F0E08081817F54
:100620008083E8E6F0E080818E7F8083089584B146
:10063000817F84B985B18E6085B98091330683FF4F
:100640000BC080916B008E6080936B00809168007E
:1006500081608093680008950C940C036F927F92E0
:100660008F929F92AF92BF92CF92DF92EF92FF92C2
:100670000F931F93CF93DF93EB018C015B018CE011
:10068000A80EB11C89E9682E96E7792E26E9822EFC
:100690003EE7932EC990D990E990F99020E030E0A0
:1006A000A901C701B6010E94C6358823B9F0A70188
:1006B0009601F80160817181828193810E94D03519
:1006C0006B017C01E894F7F89301A401C701B6011E
:1006D0000E94E837181614F0360147010C5F1F4FCF
:1006E000CA15DB05B9F6B301C401DF91CF911F91A3
:1006F0000F91FF90EF90DF90CF90BF90AF909F90C1
:100700008F907F906F900895E2EAF5E0A4ECB5E059
:100710004D915D916D917C911397408351836283DC
:10072000738314964D915D916D917C9117974483DD
:1007300055836683778318968D919D910D90BC911A
:10074000A02D80879187A287B3870895BF92CF920B
:10075000DF92EF92FF920F931F93CF93DF937C0171
:10076000FC0102A513A5D4A5C5A5818980FF33C0CE
:100770006091E60570E090E080E00E947A362AE021
:1007800037ED43E25CE30E9428389B01AC01B801DD
:100790008D2F9C2F0E9428388B01D82FC92F20E045
:1007A00030E040E85FE3B8018D2F9C2F0E94E837CE
:1007B000181624F000E010E0D0E8CFE3B8018D2F48
:1007C0009C2FDF91CF911F910F91FF90EF90DF90C1
:1007D000CF90BF90089582FD17C06091E50570E04D
:1007E00090E080E00E947A362AE037ED43E25CE355
:1007F0000E9428389B01AC01B8018D2F9C2F0E94CC
:1008000028388B01D82FC92FF701B6A0C7A0D0A4D4
:10081000F1A498014D2F5C2F6B2D7C2D8D2D9F2DDC
:100820000E94C63587FFBBCF0B2D1C2DDD2DCF2D94
:10083000B6CF8091C0029091A105981739F02EE2B1
:10084000829FC00111248F539D4F089590E080E056
:100850000895F894F999FECF92BD81BD81E08FBBD8
:1008600020B5862F8227082E000C990B50E0862396
:100870009523892B49F084E16F3F11F060BD84E03E
:100880008FBBF99A789408952617E1F360BD84E24E
:10089000F7CF9F92AF92BF92CF92DF92EF92FF92EB
:1008A0000F931F93CF93DF935C018A017B01E40ECA
:1008B000F51EEB01912C6C01C61AD70ACE018C0DE6
:1008C0009D1D21E0911007C0292D990C330B232F7A
:1008D000221F2227221F6991962E920E0E94290420
:1008E000CE15DF0559F7692DC501800F911FDF91E6
:1008F000CF911F910F91FF90EF90DF90CF90BF901D
:10090000AF909F900C9429046AE090E080E00E94F0
:10091000290446E550E06EEE75E081E090E00C942D
:100920004904F999FECF92BD81BD81E08FBB80B5AE
:1009300008959F92AF92BF92CF92DF92EF92FF9273
:100940000F931F93CF93DF935B018A017C01E40E29
:10095000F51EEC01912C6B01C81AD90AC6018C0F47
:100960009D1F0E94910421E0911007C0292D990C30
:10097000330B232F221F2227221F982E920E89939A
:10098000CE15DF0559F7C501800F911F0E94910414
:1009900021E030E0891511F030E020E0C901DF915D
:1009A000CF911F910F91FF90EF90DF90CF90BF906C
:1009B000AF909F900895CF93DF93C091BC02D091E8
:1009C000BD022097C9F080919202816080939202CB
:1009D0006091A8027091A9028091AA029091AB0245
:1009E0009B01AC010E9428386A8B7B8B8C8B9D8B82
:1009F0001092BD021092BC02DF91CF9108952F9208
:100A00003F924F925F926F927F928F929F92AF929E
:100A1000BF92CF92DF92EF92FF920F931F93CF93EB
:100A2000DF9300D000D0CDB7DEB70091A105002341
:100A300009F486C009833981315039831091BE028F
:100A4000131709F466C0C32ED12CEEE23E9FC001FD
:100A500011249C012F533D4F7901F9017688878835
:100A6000908CA18C628D738D848D958D9B01AC01D2
:100A70000E94D134F701268D378D40A151A10E94EB
:100A80002838B62EE72EF82E9B83262F372F482F97
:100A9000592F672D782D892D9A2D0E94C63587FFF5
:100AA00003C0B72C7401AB828EE28C9DF0018D9D4A
:100AB000F00D1124EF53FD4F8B2D9E2DAF2DBB81DB
:100AC000828B938BA48BB58BF9818F2FF11101C091
:100AD00080E1FF24FA94F80E3090C0021F1133C059
:100AE000131102C00E94DB04EEE21E9FC00111241C
:100AF0008F539D4F9A83898333243394310EF0E1D1
:100B00003F1201C0312C8EE2282E031185C01093B4
:100B1000BE020F900F900F900F90DF91CF911F9119
:100B20000F91FF90EF90DF90CF90BF90AF909F908C
:100B30008F907F906F905F904F903F902F9008958F
:100B400020E1298378CF29818EE2289F900111240A
:100B50002F533D4F3C832B832EE2E22E8F2C912C82
:100B6000FE9CC0011124FC01EF53FD4FFA83E98381
:100B7000F11002C090E1F92EFA94F31002C00E9425
:100B8000DB04E89CC001E99C900D11249C012F53CB
:100B90003D4F6901F90146885788608C718CA3012B
:100BA000920162897389848995890E94C635882358
:100BB00039F1F601628D738D848D958D9B01AC01A9
:100BC0000E94D134F601268D378D40A151A10E949B
:100BD0002838EB81FC8122893389448955890E9418
:100BE000D1344B015C01AC019B01C301B2010E94F5
:100BF000E837F60118165CF4828A938AA48AB58ACB
:100C000029813A813C832B831F11A8CF6DCF428A63
:100C1000538A648A758AF4CFC32CD12C329CC001CC
:100C200011249C012F533D4F7901E981FA814288BB
:100C3000538864887588F90182889388A488B58868
:100C4000A5019401C301B2010E94C63587FF26C0E9
:100C5000E981FA81628D738D848D958D9B01AC0144
:100C60000E94D134E981FA81268D378D40A151A1AE
:100C70000E942838A30192010E94D1342B013C012B
:100C8000AC019B01C501B4010E94E837181634F489
:100C9000F701428A538A648A758A132D2C9CF001CD
:100CA0002D9CF00D1124EF53FD4F26893789408D7F
:100CB000518D62897389848995890E94C635811115
:100CC00001C0132D3394F0E13F1201C0312CFA82A0
:100CD000E9821BCF90911F06492F80912006282F73
:100CE00090FF11C094E080FF10C080E241FD986049
:100CF00021FD806442FD906122FD80689093EF01A8
:100D00008093F001089590E0EECF80E0EFCF8091E6
:100D1000330682FF13C0289A8091EF01809300026E
:100D200080911E068250990B880F81958093FF0158
:100D300080916F00826080936F0008952898ECCFB7
:100D40000E941904892B19F082E00C945C0208952A
:100D5000E091000191E09E0F993609F490E0209116
:100D60006A01291761F0F0E0EF5FFE4F80839093F6
:100D700000018091C10080628093C10004C0209175
:100D8000BE0524FFECCF0895CF93DF93C0ECD6E0EF
:100D90008991811103C0DF91CF9108950E94A80627
:100DA000F7CF8F929F92AF92BF92CF92DF92EF9246
:100DB000FF920F931F93CF93DF93CDB7DEB72D979D
:100DC0000FB6F894DEBF0FBECDBF6B017C01042FC0
:100DD00020E030E0A9010E94C63587FF07C08DE200
:100DE0000E94A806F7FAF094F7F8F094102F12304A
:100DF00008F054C000FF0AC020E030E040E251E4B7
:100E0000C701B6010E9428386B017C0120E030E068
:100E100040E05FE3C701B6010E94D1340E94423630
:100E200010E03AE0832E912CA12CB12CE12FF0E0C0
:100E30006115710581059105E9F581E090E08C0F60
:100E40009D1FE80FF91F80E3101708F445C0101329
:100E500009C0E1E0F0E0EC0FFD1FE10FF11D80E3C0
:100E600080831F5FEE24E394F12CEC0EFD1EE10E57
:100E7000F11C111134C02D960FB6F894DEBF0FBED1
:100E8000CDBFDF91CF911F910F91FF90EF90DF9039
:100E9000CF90BF90AF909F908F90089520E030E06A
:100EA00048EC52E4C701B6010E9428386B017C016E
:100EB00012509DCFEE24E394F12CEC0EFD1EEE0EAD
:100EC000FF1EA50194010E945139605DF701608306
:100ED000B901CA011F5FAACF1F5F8193B5CF10135D
:100EE00003C08EE20E94A806F70182917F010E9452
:100EF000A8061150BECF2091330640E020FF07C066
:100F00002BE832E441E25DE30E94283841E00C9492
:100F1000D1062091330643E020FF07C02BE832E4DE
:100F200041E25DE30E94283844E00C94D1060F931F
:100F30001F93CF938C01C0E0F80161917191819171
:100F400091918F010E948907C23019F08CE20E94B2
:100F5000A806CF5FC33081F7CF911F910F910895FD
:100F6000CF93DF93843658F06AE00E943139C0E3B2
:100F7000C90F6AE00E943139D0E3D90F04C0C0E044
:100F8000D0E08A30B0F7805D0E94A806DD2319F01A
:100F90008D2F0E94A806CC2329F08C2FDF91CF91B2
:100FA0000C94A806DF91CF910895CF93DF93EC01C5
:100FB000FE0184912196811103C0DF91CF910895A4
:100FC0000E94A806F5CF8DE192E00C94D507CF934F
:100FD000C82F86E292E00E94D5078C2F0E94B007AE
:100FE000CF910C94E307882321F0883231F00C94E0
:100FF000E70783E392E00C94D5078DE292E0FBCF04
:10100000CF92DF92EF92FF92CF93DF93D82F6A01B6
:101010007B01C22F84E20E94A8068D2F0E94B00798
:101020008DE30E94A8064C2FC701B6010E94D1068D
:10103000DF91CF91FF90EF90DF90CF900C94E3077A
:10104000CF93DF93D82FC62F84E20E94A8068D2F5E
:101050000E94B0078DE30E94A8068C2F0E94B00763
:10106000DF91CF910C94E307EF92FF920F931F93C0
:10107000CF93DF9360911E0670E080E00E9420080D
:101080006091210670E081E00E94200860911F06B7
:1010900070E082E00E9420086091200670E083E00A
:1010A0000E9420086091330662FB662760F970E0B9
:1010B00084E00E9420086091330666FB662760F991
:1010C00070E085E00E94200880913306082E000C15
:1010D000990B692F661F6627661F70E086E00E94E5
:1010E00020086091220670E08AE00E94200840916A
:1010F000230650912406609125067091260623E070
:101100008BE00E94000840912706509128066091CC
:10111000290670912A0623E08CE00E940008609165
:101120003306617070E08DE00E9420086091330604
:1011300065FB662760F970E084E10E9420086091F9
:10114000330663FB662760F970E085E10E942008A2
:10115000609133066295617070E086E10E9420081C
:101160006091350670E087E10E94200840913606C4
:1011700050913706609138067091390623E088E176
:101180000E94000840913A0650913B0660913C064F
:1011900070913D0623E089E10E94000860913E06BF
:1011A00070913F068AE10E942008409140065091CC
:1011B0004106609142067091430623E08BE10E9454
:1011C000000840912B0650912C0660912D067091DD
:1011D0002E0620E08EE10E94000840912F065091DB
:1011E0003006609131067091320620E08FE10E9456
:1011F000000870E060E080E20E9420086091340600
:10120000617070E088E20E94200884E6F82E10E009
:10121000CEEED5E000E0E02EEF0C123011F11330ED
:1012200069F11130C9F0488159816A817B8123E0DD
:101230008E2D0E9400080F5F2496033061F78AE02C
:10124000F80E1F5F8CE8F812E3CFDF91CF911F916A
:101250000F91FF90EF9008954C855D856E857F8599
:10126000E6CF20E030E041E655E4688D798D8A8D47
:101270009B8D0E94D035AB01BC01D9CF4CA15DA1A3
:101280006EA17FA17058D3CF8DE50E94A8060C9463
:10129000E307CF93DF93CDB7DEB72C970FB6F89463
:1012A000DEBF0FBECDBF80E292E00E94D50760EDA9
:1012B00075E0CE0101960E94A002CE0101960E9427
:1012C00097078AE30E94A8068091E3050E94B00771
:1012D0000E9444092C960FB6F894DEBF0FBECDBF16
:1012E000DF91CF9108959091DF05911105C086FFA0
:1012F00004C0439A1092EC0508954398FBCF2C98B4
:1013000008959091DF0591110AC09091340690FDE7
:1013100006C0811105C00E947F091092EC05089556
:10132000803119F42D982C9AF8CF2D9AFCCF249A5D
:10133000259A0C947F0964EC75E08DE596E00C9499
:10134000A002E2EAF5E08CE1DF011D928A95E9F75F
:101350001092C0021092A10581E08093BF0210920A
:10136000BE0208954F925F926F927F92AF92BF92AA
:10137000CF92DF92EF92FF920F931F93CF93DF9361
:10138000EC015C012CE0A20EB11C8C01C12CD12C13
:101390007601F80141905190619071908F0120E0A9
:1013A00030E0A901C301B2010E94C635882371F063
:1013B000A3019201C301B2010E9428389B01AC0134
:1013C000C701B6010E94D1346B017C010A151B05CF
:1013D00001F7C701B6010E94C7386B017C01AC015F
:1013E0009B0160E070E080E89FE30E94D0352B0114
:1013F0003C0169917991899199915E01F4E0AF1A6C
:10140000B108A30192010E942838F501608371831D
:1014100082839383C017D10761F7C701B601DF91BB
:10142000CF911F910F91FF90EF90DF90CF90BF90E1
:10143000AF907F906F905F904F9008952F923F9262
:101440004F925F926F927F928F929F92AF92BF92D4
:10145000CF92DF92EF92FF920F931F93CF93DF9380
:10146000CDB7DEB7C254D1090FB6F894DEBF0FBEB8
:10147000CDBF3B010091A105202E312C2EE2029F11
:10148000A0011124BA016F537D4F7AAF69AFFB0100
:1014900011922A95E9F7F3012085FB01218B21FFA9
:1014A000F0C02CE0E4ECF5E0DE01599601900D92DD
:1014B0002A95E1F789AB9AAB2EEE35E021963FAF46
:1014C0002EAF2197BE01635F7F4F7EAF6DAFCE0120
:1014D00049969CAF8BAFE9ADFAADF8AFEFAB9E018B
:1014E0002B5D3F4F3CAB2BAB3EAB2DAB10E08EE208
:1014F000829D2001839D500C1124B2016F537D4FBA
:101500002B01CB010C9623969FAF8EAF239790E1D2
:10151000490E511CE9A9FAA96191719181919191AA
:10152000FAABE9AB2196EEADFFAD2197819091909A
:10153000A190B1902196FFAFEEAF2197A501940144
:101540000E9428380E94F537EDADFEAD619371938E
:1015500081939193FEAFEDAFEBADFCADC190D19017
:10156000E190F190FCAFEBAF6C197D098E099F09FA
:101570009B01AC0197FF07C022273327A901261B37
:10158000370B480B590BEFA9F8AD219331934193D9
:101590005193F8AFEFAB2396EEADFFAD2397C0802C
:1015A000D180E280F380C216D306E406F50610F47B
:1015B00069017A012396EEADFFAD2397C082D182F7
:1015C000E282F3820E947A36A50194010E94D0350E
:1015D000EDA9FEA96193719381939193FEABEDAB5D
:1015E00020E030E0A9010E94C63587FF0BC090E2E1
:1015F000112321F090E8113009F490E4F201808188
:10160000892B80831F5F133009F084CF80E0CD28C1
:10161000CE28CF2809F4CBC0CE0185960E94B2090E
:101620004B015C012EE2229DC001239D900D1124EF
:101630009C012F533D4F7901F901868E978EA0A210
:10164000B1A2BE016B5D7F4F86E096E00E942E0343
:10165000F701628F738F848F958FBE016B5D7F4F13
:101660008AEF95E00E942E03F70166A377A380A777
:1016700091A7118910FF09C062A773A784A795A736
:1016800010C02CE0E2EAF5E00FCFF30120813181B8
:101690004281538113FDA5C0F70122A733A744A7B8
:1016A00055A78091C002081711F011FFA0C08EE26B
:1016B000829DF001839DF00D1124EF53FD4F128A9E
:1016C000138A148A158A12A213A214A215A28EE2FA
:1016D000829D8001839D100D11240F531D4FF80131
:1016E000818981FD63C089AD9AAD0E94A6036B011B
:1016F0007C018090BA059090BB05A090BC05B0908D
:10170000BD05AC019B01C501B4010E94C63587FF30
:1017100036C1A5019401C501B4010E942838F80121
:10172000668B778B808F918F8EE2829D8001839D67
:10173000100D11240F531D4FF80182A093A0A4A0F7
:10174000B5A0A501940166897789808D918D0E944D
:10175000E83718162CF4F801868A978AA08EB18E85
:10176000C092BA05D092BB05E092BC05F092BD05CF
:101770008CE0FE01B596AEEAB5E001900D928A9537
:10178000E1F78CE0FE013D96A2EAB5E001900D92F2
:101790008A95E1F78091BF028093A1058F5F803128
:1017A00009F480E08093BF020E94FF0481E0CE5BD9
:1017B000DF4F0FB6F894DEBF0FBECDBFDF91CF91E4
:1017C0001F910F91FF90EF90DF90CF90BF90AF905F
:1017D0009F908F907F906F905F904F903F902F9051
:1017E0000895C501B4010E942838F70145CF2EEABB
:1017F00035E03AAB29AB8E010F5F1F4F6BA97CA977
:10180000645F7F4F7CAF6BAFC12CD12C76010DABE9
:101810001FABE9A9FAA981909190A190B190FAAB80
:10182000E9ABEBA9FCA94190519061907190FCABA0
:10183000EBABA3019201C501B4010E9428389B01C2
:10184000AC01C701B6010E94D0346B017C01A50137
:101850009401C301B2010E94D034F80161937193E5
:10186000819391938F012BAD3CAD6BA97CA9261779
:10187000370779F62FEE3FEF4FE75FE3C701B60179
:101880000E94E83718164CF48EE2829DF001839D89
:10189000F00D1124EF53FD4F16CF2FEE3FEF4FE722
:1018A0005FEBC701B6010E94C63587FF11C08EE20B
:1018B000829DF001839DF00D1124EF53FD4F89E9C6
:1018C00096E7A6E9BEE782A393A3A4A3B5A3FFCEA0
:1018D0008DA99FA90E94B2096DA97FA986E096E013
:1018E0000E942E034B015C01A701960160E070E0AD
:1018F00080E89FE30E94D03420E030E040E05FE3E6
:101900000E9428380E94C7386B017C012091230671
:10191000309124064091250650912606C501B40158
:101920000E942838A70196010E9428384B015C01CB
:10193000A701960160E070E080E89FE30E94D03448
:101940009B01AC01C501B4010E94D0356B017C0143
:1019500020E030E0A9010E94C63587FF03C0C12CFA
:10196000D12C76018EE2829DF001839DF00D112431
:10197000EF53FD4FC2A2D3A2E4A2F5A2A8CEA701C5
:101980009601C701B601C9CE80916F008D7F80930B
:101990006F0080918100887F816080938100109228
:1019A000F101809121069091DE058F3FA1F42091F5
:1019B000BF05211110C0903881F490E0019778F4B0
:1019C00081E09091330692FF02C091E0892788233D
:1019D00069F0289A0895943081F780E0F2CFEFE91A
:1019E000FFE03197F1F700C00000E8CF2898089594
:1019F000CF93DF930E94C40CE1E9F2E08BE2DF01B8
:101A00001D928A95E9F7C2EFD1E083E2FE011192BF
:101A10008A95E9F71092BD021092BC02109215024D
:101A200010923B0281E0809316021092F1010E9415
:101A30006A068091F0018F878BB1837E9091EF01D0
:101A4000892B8BB98BB18F719091F001892B8BB958
:101A5000DF91CF9108958091BE0584FD1CC080E187
:101A60000E945C020E947F0943989091DE05892FB5
:101A70008C7221F48091E205867069F0943049F40B
:101A80008091BF05811103C086E00E944C020C9436
:101A9000C40C83E0FACF08952F923F924F925F9249
:101AA0006F927F928F929F92AF92BF92CF92DF926E
:101AB000EF92FF920F931F93CF93DF93CDB7DEB7D3
:101AC000C654D1090FB6F894DEBF0FBECDBF20912A
:101AD000E2052AA320FDCFC624702BAB3091A105CF
:101AE00039AF4EE2349FC0011124DC01AF53BD4F2A
:101AF0002396BFAFAEAF2397BAA1B270BCAB4091F3
:101B0000C0024AAF4F5F4D8F403109F446C74BAF1B
:101B10005EE2ABAD5A9FC0011124FC01ED52FD4FB6
:101B20002596FFAFEEAF2597909115028091160292
:101B3000981709F4A0C68091BC029091BD02892B30
:101B400009F079C0EBA9EE2309F40FC223962EAD5C
:101B50003FAD23973093BD022093BC024091BC025D
:101B60005091BD025A874987452B09F484C61091CC
:101B7000920210FF01C2109292021092A4021092DF
:101B8000A5021092A6021092A702A985BA855A96BC
:101B90002D913D914D915C915D9729833A834B83C3
:101BA0005C8360E070E080E09FE30E94D0356D834D
:101BB0007E838F839887E985FA85468C578C60A051
:101BC00071A082889388A488B588FCA9FF2309F4B2
:101BD000A1C222E02093A302A50194010E9428380B
:101BE0009B01AC01C301B2010E94D0346B017C01A6
:101BF00020E030E0A9010E94C63587FF7AC2298122
:101C00003A814B815C81CA01B9010E94D134A301A0
:101C100092010E9428389B01AC01C501B4010E94C9
:101C2000D0340E94C7386093B0027093B1028093A1
:101C3000B2029093B30280913B02482F50E05A8B3E
:101C4000498B86E0849FF001859FF00D1124E95EA9
:101C5000FD4F809191028483A091BC02B091BD029E
:101C6000BE87AD875E96BC91BFA3ED85FE85F78DDF
:101C7000F8A7AD85BE859096BC91B9A7ED85FE8588
:101C8000F1A1FAA720919F023091A0024091A102F8
:101C90005091A2026FA178A58B2F9F2F0E94D03464
:101CA0006DAB7EAB8FAB98AF20E030E0A9010E9416
:101CB000C63587FF04C01DAA1EAA1FAA18AE209110
:101CC000AC022D8B3091AD023E8B4091AE024F8B1A
:101CD0005091AF02588F8091B4028E8F9091B502CF
:101CE0009F8FA091B602A8A3B091B702B9A3E091CB
:101CF000A302E987F091B802FBA72091B9022CA7B3
:101D00003091BA023DA74091BB024EA73090A80285
:101D10002090A9025091AA0227965FAF2797809141
:101D2000AB0226968FAF26979091A4029FA7A09111
:101D3000A502A8ABB091A602B9ABE091A702EAABAD
:101D4000F091B002FDAF2091B1022EAF3091B202FE
:101D50003FAF4091B30221964FAF21972BA53CA5F1
:101D60004DA55EA56E8D7F8D88A199A10E94C63577
:101D7000811159C352E05CAF9FA1998FA8A5AA8F8A
:101D8000B9A5BB8FEAA5EC8F8EE3C82E83ECD82EC5
:101D90008EE2E82E89E3F82E412C512C3201A70166
:101DA00096012BA33CA34DA35EA35985513009F4A2
:101DB000F7C3AD85BE85513008F46FC3533009F0C9
:101DC00025C45A962D913D914D915C915D97C70127
:101DD000B6010E9428384B015C012D893E894F894C
:101DE000588D632D722D27968FAD279726969FAD20
:101DF00026970E94D0349B01AC01C501B4010E941A
:101E0000E83787FD1AC32E8D3F8D48A159A16FA1D8
:101E100078A589A59AA50E94D0349B01AC010E94A7
:101E2000D1346B017C01232D322D27964FAD27979E
:101E300026965FAD26976D897E898F89988D0E9441
:101E4000D1349B01AC01C701B6010E94D0356B01B2
:101E50007C013D882E88BF892796BFAF2797E88DE4
:101E60002696EFAF26970E8D1F8DF8A1F98329A135
:101E70002D8331E03987A7019601C301B2010E9489
:101E8000D1342B013C012BA13CA14DA15EA10E94AC
:101E9000C63587FF3AC4A30192016BA17CA18DA135
:101EA0009EA10E94D0346B017C01980149815D8123
:101EB0006FA578A989A99AA90E94C63587FDB6C2DF
:101EC00039853093A302832D922D2796AFAD2797A6
:101ED0002696BFAD26978093A8029093A902A0935F
:101EE000AA02B093AB0220919B0230919C024091D8
:101EF0009D0250919E02B80189819D810E942838DF
:101F000069877A878B879C870E94AF356B017C013C
:101F100060919702709198028091990290919A0233
:101F20000E94AF354B015C01A70196010E94D0349D
:101F30000E9449366D877E878F87988BA6E08989B6
:101F40009A89A89FF001A99FF00D1124E95EFD4F29
:101F50002D853E8531832083232B09F0F6C35CA9B0
:101F6000552309F4F2C38AA183C40E9419049093F3
:101F7000BD028093BC02F2CD809191028F5F8530CB
:101F800009F480E080939102482F50E091E1949F02
:101F9000F001959FF00D1124E45CFD4FA985BA85F1
:101FA00050969C915097908BE1E18E9FC001112437
:101FB00030E020E0CD90DD90ED90FD90FC01E20F4F
:101FC000F31FE45CFD4F63E0CC0CDD1CEE1CFF1C3A
:101FD0006A95D1F7C082D182E282F3822C5F3F4FB3
:101FE0002C30310539F7A985BA851C966D917D9104
:101FF0008D919C911F97B1E1B49F9001B59F300DD9
:102000001124F901E45CFD4F6B017C0123E0CC0C51
:10201000DD1CEE1CFF1C2A95D1F7C486D586E6860A
:10202000F7860E94783660939702709398028093A7
:10203000990290939A02E985FA85268D378D40A101
:1020400051A10E94D0359B01AC0120939B0230939B
:102050009C0240939D0250939E0260E070E080EAF3
:102060009FE30E94D03560939F027093A0028093FB
:10207000A1029093A20210929302109294021092E5
:10208000950210929602FCA9F11102C013FF20C024
:102090006091B0027091B1028091B2029091B3024E
:1020A0006093A8027093A9028093AA029093AB0256
:1020B0009B01AC010E942838A985BA8552966D9380
:1020C0007D938D939C935597177F1093920255CDD6
:1020D000E985FA8562897389848995890E94C73860
:1020E0006093A8027093A9028093AA029093AB0216
:1020F00044CDC092A402D092A502E092A602F09232
:10210000A7021092B0021092B1021092B202109285
:10211000B30291CD1092A3024092B4025092B50244
:102120006092B6027092B7023BA9332309F46AC0E9
:102130001092B0021092B1021092B2021092B30249
:10214000C12CD12C760189859A850E94A6036D87C2
:102150007E878F87988B9B01AC010E942838698706
:102160007A878B879C87A50194010E94C63587FFDB
:102170008BC029853A854B855C85C501B4010E94D9
:10218000D0342D813E814F8158850E9428389B0193
:10219000AC01C301B2010E94D0346093B4027093C9
:1021A000B5028093B6029093B70220E030E0A90117
:1021B0000E94C63518160CF441C0B2E0B093A302D9
:1021C00029813A814B815C81CA01B9010E94D134D5
:1021D000A30192010E9428389B01AC01C501B40102
:1021E0000E94D0340E94C7386093B0027093B1024D
:1021F0008093B2029093B3028091920288608093A0
:10220000920219CD49AD5BADC12CD12C7601451799
:1022100041F02596AEADBFAD2597CD90DD90ED9008
:10222000FC90C701B6010E94C7386093B00270935A
:10223000B1028093B2029093B30285CFA7019601B9
:1022400069857A858B859C850E94D0342D813E815D
:102250004F8158850E9428386093B8027093B90264
:102260008093BA029093BB022D853E854F85588995
:102270002093AC023093AD024093AE025093AF0274
:1022800033E03093A302D7CCA7019601C501B40176
:102290000E94D0342D813E814F8158850E9428387C
:1022A000A30192010E94D13420E030E040E05FE3DE
:1022B0000E942838698B7A8B8B8B9C8B20E030E0D6
:1022C000A9010E94E83718160CF094C0A3019201EE
:1022D00069897A898B899C890E94C63587FF88C065
:1022E000A701960169857A858B859C850E94D034EB
:1022F0002D813E814F8158850E9428389B01AC0179
:102300002093B8023093B9024093BA025093BB02B3
:1023100069897A898B899C890E94E8371816BCF5EF
:102320008D859E85AF85B8898093AC029093AD0270
:10233000A093AE02B093AF02A501940169857A859E
:102340008B859C850E94C635811104C091E09093D5
:10235000A30271CCA501940169857A858B859C8542
:102360000E94D0342D813E814F8158850E942838AB
:102370009B01AC01C301B2010E94D0346093B4024E
:102380007093B5028093B6029093B70254CC29891A
:102390003A894B895C892093B4023093B50240930B
:1023A000B6025093B7022093B8023093B90240931B
:1023B000BA025093BB0229813A814B815C81CA01E8
:1023C000B9010E94D13429893A894B895C890E94DC
:1023D0002838A70196010E94D1340E94C738609323
:1023E000AC027093AD028093AE029093AF0223CC07
:1023F00032E047CF8091B0029091B102A091B20239
:10240000B091B3021092B4021092B5021092B602CB
:102410001092B7028093AC029093AD02A093AE02EB
:10242000B093AF0208CC81E08CAFA6CC098F1A8F95
:1024300039813B8F4D814C8FB8CC20E030E040E0BB
:102440005FE3C501B4010E9428389B01AC01632DF4
:10245000722D27968FAD279726969FAD26970E94BF
:10246000D034A70196010E9428389B01AC01698DE8
:102470007A8D8B8D9C8D0E94D0348B0189839D83B6
:10248000A5019401632D722D27968FAD279726966F
:102490009FAD26970E94D0347AC05A962D913D91D7
:1024A0004D915C915D97C701B6010E9428384B01A0
:1024B0005C0120E030E040E05FE30E942838232DFB
:1024C000322D27964FAD279726965FAD26970E940F
:1024D000D134A70196010E9428389B01AC01698D77
:1024E0007A8D8B8D9C8D0E94D0348B0189839D8346
:1024F0009B01AC016E8D7F8D88A199A10E94E83768
:102500001816CCF52E8D3F8D48A159A16FA178A545
:1025100089A59AA50E94D0349B01AC010E94D134B8
:102520006B017C01232D322D27964FAD27972696E0
:102530005FAD26976D897E898F89988D0E94D134F1
:102540009B01AC01C701B6010E94D0356B017C0133
:102550003D882E88BF892796BFAF2797E88D26969E
:10256000EFAF2697FCADF9870E8D1F8D28A129832B
:1025700039A13D8380CCA5019401632D722D27964E
:102580008FAD279726969FAD26970E94D134362E81
:10259000272E27968FAF279726969FAF26976BCC2F
:1025A0002D893E894F89588DC701B6010E94283870
:1025B0009B01AC01698D7A8D8B8D9C8D0E94D034EE
:1025C0008B0189839D832BA53CA54DA55EA50E940B
:1025D000C63587FF50CC2BA53CA54DA55EA5698DC2
:1025E0007A8D8B8D9C8D0E94D0342D893E894F89A8
:1025F000588D0E94D0356B017C010BA51CA54DA503
:1026000049835EA55D8382E0898735CC5A962D91FA
:102610003D914D915C915D97C701B6010E942838AC
:102620004B015C01232D322D27964FAD279726961F
:102630005FAD26970E94C63587FF2CC020E030E0B2
:1026400040E05FE3C501B4010E9428389B01AC0162
:10265000632D722D27968FAD279726969FAD2697CF
:102660000E94D034A70196010E9428389B01AC013A
:10267000698D7A8D8B8D9C8D0E94D0348B018983DE
:102680009D832FA538A949A95AA90E94E837181691
:102690000CF4F6CE2FA538A949A95AA9698D7A8DCF
:1026A0008B8D9C8D0E94D0349B01AC010E94D13453
:1026B0006B017C01232D322D27964FAD279726964F
:1026C0005FAD26976DAD7EAD8FAD21969FAD219705
:1026D0000E94D1349B01AC01C701B6010E94D035E4
:1026E0006B017C013DAC2EACBFAD2796BFAF2797E9
:1026F0002196EFAD21972696EFAF26970FA518A943
:10270000F9A9F9832AA92D83B6CB2DA93EA94FA9F2
:1027100058ADB80189819D810E94E83718168CF464
:102720002EE333EC4EE259E36BA17CA18DA19EA177
:102730000E94D1346BA37CA38DA39EA3A30192011D
:10274000B0CB49854093A302BECB20919302309138
:1027500094024091950250919602C301B2010E94E9
:10276000D1342B013C0129853A854B855C85C50117
:10277000B4010E94D0349B01AC01C301B2010E949C
:10278000D0354B015C0120EC31EE44E65EE40E9462
:1027900028380E94AF350E944936603DA7E07A078D
:1027A0008105910508F081C046E029893A89429F58
:1027B000F001439FF00D1124E95EFD4F158246E0C4
:1027C00029893A89429FF001439FF00D1124E95E67
:1027D000FD4F738362838091160280933B028F5F6B
:1027E000863009F4BBC080931602E091BC02F091E0
:1027F000BD02C801A981BD81868F978FA0A3B1A317
:10280000C0929702D0929802E0929902F0929A02B6
:1028100029853A854B855C85C701B6010E94D03475
:10282000A50194010E94283860939302709394024A
:1028300080939502909396022091A4023091A50274
:102840004091A6025091A702B80189819D810E9402
:10285000C635811169C920E030E0A901B80189813C
:102860009D810E94E83718160CF07BC08091E2052C
:1028700081608093E205CA5BDF4F0FB6F894DEBF3C
:102880000FBECDBFDF91CF911F910F91FF90EF90C1
:10289000DF90CF90BF90AF909F908F907F906F9080
:1028A0005F904F903F902F900895603A5FE07507DA
:1028B00081059105A0F526E0A989BA892A9FF00132
:1028C0002B9FF00D1124E95EFD4F31E0358346E08A
:1028D00029893A89429FF001439FF00D1124E95E56
:1028E000FD4F2581022E04C09695879577956795B3
:1028F0000A94D2F7AD85BE8502C0AA0FBB1F2A95E8
:10290000E2F7B183A08361157105B1E08B079105F2
:1029100008F455CF8FEF9FEF938382835CCF6034B1
:102920004FE174078105910560F426E0A989BA8911
:102930002A9FF0012B9FF00D1124E95EFD4F32E03C
:10294000C5CFA6E049895A89A49FF001A59FF00D43
:102950001124E95EFD4FB3E0B583B9CF10921602A2
:1029600044CF9BA99111FFCA1092BD021092BC02E4
:10297000A9ADBAADAB1709F4D7C8ED8DE03109F4B4
:102980001D8E8091BE02FAADF81303C02D8D2093E9
:10299000BE023D8D3093C002B2C81BAEB9C82F92A3
:1029A0003F924F925F926F927F928F929F92AF92DF
:1029B000BF92CF92DF92EF92FF920F931F93CF932C
:1029C000DF93CDB7DEB7AE970FB6F894DEBF0FBE7C
:1029D000CDBF1091BF05112341F1123089F48FEC66
:1029E00092E00E94D5078DEB92E00E94D5070E94ED
:1029F000440980E10E9452028091BE0584FFFCCF11
:102A000081E08093DE0585E691E00E94D507812F65
:102A10000E94B0070E94E30785EF91E0019741F51E
:102A20008FB7F8941092BF058FBF1091BE05112388
:102A300009F4D9C214FF23C081E08093DF05AE966C
:102A40000FB6F894DEBF0FBECDBFDF91CF911F91BF
:102A50000F91FF90EF90DF90CF90BF90AF909F903D
:102A60008F907F906F905F904F903F902F90089540
:102A7000EFE9FFE03197F1F700C00000CFCF10FF82
:102A8000BFC08CE0E4ECF5E0DE01599601900D92B8
:102A90008A95E1F7BE01675E7F4FCE010D960E94D9
:102AA000A0028CE30E94A8068091DE05883009F41C
:102AB00025C108F000C1813009F429C108F419C109
:102AC000823009F427C1843009F41EC180912206A6
:102AD000F82FF1709F2E80FF32C18091ED05882381
:102AE00009F42DC180E991E00E94D507CE010D9631
:102AF0000E9497078091220681FF1DC084E891E023
:102B00000E94D5079091A1058091C002981708F402
:102B100065C1815F891B0E94B0078CE20E94A806F4
:102B20008091ED019091EC01981708F459C18058FB
:102B3000891B0E94B00780E891E00E94D507809130
:102B4000DE058C7709F44EC16091A8027091A9024C
:102B50008091AA029091AB020E947B070E94F8022A
:102B6000E82E0E94DC02F82E06B104708091C305A5
:102B700008278E2D8F29802B59F18BE791E00E9439
:102B8000D507002319F080E50E94A806EE2079F011
:102B9000E0FE03C088E50E94A806E1FE03C089E5C7
:102BA0000E94A806E2FE03C08AE50E94A806FF2054
:102BB00079F0F0FE03C082E50E94A806F1FE03C092
:102BC00088E40E94A806F2FE03C083E50E94A806DE
:102BD0008091ED05882309F409C181508093ED05AA
:102BE0000091EC05002309F41AC101500093EC0593
:102BF0008EE30E94A8060E94E30781E00E94520231
:102C0000812F887E09F49FC18091DE05982F9370F3
:102C100009F088C18872A9F08091E005807C89F470
:102C20000E94DB0482E08093E2058091DE05803221
:102C300041F480E217FD0CC08091E005806880932C
:102C4000E0058091DE05811103C091E09093E005DD
:102C500016FF07C085FD05C08091E0058064809364
:102C6000E00513FF09C00E947F098091DE05807E88
:102C700019F480E18093DE0515FF54C18FEC92E0DA
:102C80000E94D5078BE792E00E94D5070E94440975
:102C90008091E00587FD41C19091DE05903409F0F7
:102CA00039C183FF04C0837E82608093E00580E4A5
:102CB0008093DE0532C1803221F198F4803109F031
:102CC00005CF8091E00587FD1CC088EB91E00E9454
:102CD000D5078091E00580FF2EC080E30E94A80602
:102CE000F5CE8034D1F0803809F0F0CE87E991E05C
:102CF00002C082EC91E00E94D507E8CE8EEB91E015
:102D0000FACF84EB91E0F7CF8FEA91E0F4CF89EA34
:102D100091E0F1CF83EA91E0EECF8DE991E00E945E
:102D2000D5078091E00583FF02C083E3D7CF82FF00
:102D300004C085FFD2CF81E3D1CF82E3CFCF4090D3
:102D40008106509082066090830670908406F9E6B2
:102D5000AF2EF6E0BF2E9E012F5F3F4F6901CE01DF
:102D60000D967C0100E0F501619171918191919145
:102D70005F0120853185428553850E94D134F6015B
:102D800061937193819391936F01023041F4A30198
:102D900092010E94D13469877A878B879C87911032
:102DA00012C0F60134972081318142815381F701AD
:102DB00060817181828193810E94D034F7016083A8
:102DC0007183828393830F5FF4E0EF0EF11C033075
:102DD00051F6911087CE89E891E086CE81509ACE47
:102DE0008150A6CE60E070E0CB01B6CE8091DE05CA
:102DF0008C7799F08DE18093ED058091EC05811140
:102E000003C081E08093EC0585E791E00E94D5073F
:102E1000CE0101960E949707E3CE89E0ECCF809126
:102E2000DE058C7709F446C083E18093EC0580E7EA
:102E300091E00E94D5078091E5050E94B0078CE2E1
:102E40000E94A8068091E6050E94B0078CE20E94CD
:102E5000A8068091E7050E94B0078CE20E94A806B0
:102E60006091E8057091E90590E080E061157105D9
:102E70008105910509F580E30E94A8062C9B45C0B9
:102E80002D9B45C052E0F52E439B37C200E48CE6F3
:102E900091E00E94D507FF2031F0F1E083E5FF12B9
:102EA00083E40E94A806002309F4A2CE86E40E94CF
:102EB000A8069ECE89E0B9CFE12C6E0125E2C20EB4
:102EC000D11CEAE04E2E512C612C712C5601AE0C17
:102ED000B11CA30192010E945139F5016083B9012F
:102EE000CA01E394611571058105910579F7EC0C30
:102EF000FD2CF11CCE14DF0409F4C0CFF701829140
:102F00007F01805D0E94A806F5CFF12CBDCFFF2484
:102F1000F394BACF903809F0CACE8091E005806270
:102F20008093E00517FF0CC08091DE05813029F405
:102F30008091E00585608093E00580E88093DE0560
:102F400088EE0E94520211FF28C0812F887611F569
:102F50008091DE05803441F48091E00585FD04C058
:102F600084FF29C11092DE058091DE05882309F4D3
:102F700028C184FF0FC09091E00590FF0BC0803105
:102F800009F01FC18091EA05882309F41AC18860FD
:102F90008093EA0582E00E94520212FF24C09091C1
:102FA000E0058091DE05807D09F424C18091E10572
:102FB000811120C197FD20C10E94DB048091C002D5
:102FC0008093BE020E94FF048091E20581FF05C04C
:102FD0009091E00591609093E005897F8093E205F0
:102FE00084E00E9452029091C005992309F44CC0DC
:102FF0008FB7F8941092C0058FBF4091E505842FDC
:1030000090FD84E691FD865F92FD8A5093FD8F5F6F
:1030100094FD8150893C08F088EC8A3008F48AE0FD
:103020003091E605232F95FD24E696FD22E397FDDA
:1030300029E1481302C0231739F18093E505209355
:10304000E6051092EC057090C0026090A105172D66
:1030500089E9282E96E7392E26E9422E3EE7532E9F
:103060004EE2842E1611E3C0C101D2018093BA054D
:103070009093BB05A093BC05B093BD050E94DB04F3
:103080007092BE020E94FF041091C105112309F441
:1030900045C08FB7F8941092C1058FBF9091E70596
:1030A000892F10FD84E611FD865F12FD8A5013FD05
:1030B0008F5F14FD8150893C08F088EC8A3008F459
:1030C0008AE0981761F08093E7058091DE05811111
:1030D00004C180914D060E9481091092EC0515FFF4
:1030E0000BC08091DE05803139F48091EA058111B1
:1030F000FAC082E08093EA05107C81F08091DE05C1
:10310000882311F0887351F010914C0616FFEFC020
:103110001F7B812F0E94730910934C062091C205DA
:10312000222379F18FB7F8941092C2058FBF409196
:10313000E8055091E905CA0120FF02C084E690E04D
:1031400021FD0A9622FD0A9723FD019624FD019791
:10315000893EF3E09F0710F088EE93E08A309105F6
:1031600010F48AE090E04817590731F09093E90590
:103170008093E8051092EC0525FF03C081E0809361
:10318000EB058091EE01882371F08FB7F8941092CF
:10319000EE018FBF8091340680FDABC081608093CB
:1031A00034060E947F098091DE058C7F09F447CCAC
:1031B0000E944C0D44CC82FFD7CE88608093E005FE
:1031C000D3CE1092E2050E941904892B71F08091F0
:1031D000E00586FD0AC01092E00588E08093DE05D8
:1031E0000E944C0D0E948706D5CE1092E0051092E9
:1031F000DE05D0CE97FF0AC01092E2050E94A10919
:103200000E94F80C0E949B090E9484038091E005B3
:1032100085FF08C08F7781608093E00580E480930C
:10322000DE05DECE1092E0051092DE05D9CEA12E8D
:10323000B12C189DC00111248F539D4F0E94A603ED
:10324000962EC72ED82E092F9101A2010E94E83791
:103250008A9C70018B9CF00C112497012F533D4FD9
:10326000790118168CF59101A201B101C2010E94E9
:103270002838F701668B778B808F918F8A9CC001ED
:103280008B9C900D11249C012F533D4F7901F90126
:1032900022A033A044A055A0A2019101668977899C
:1032A000808D918D0E94E83718162CF4F701268A3C
:1032B000378A408E518E1F5F103109F410E0292C9F
:1032C0003C2C4D2C502ECECE292D3C2D4D2D502F4B
:1032D000692D7C2D8D2D902FCACF8091E2058860BD
:1032E0008093E205FACE80FF07CF846003CF10649D
:1032F00010CF8E7F8093340656CFF110C8CD78CC96
:103300001F93CF93DF930E94CF148091E005882311
:1033100009F453C00E941904009771F580914D067D
:1033200090914C06892BD82FD07311E0C82FC07C08
:103330008091E005882309F440C09091DF05911148
:103340003CC080FF16C09091DE05292F207C09F437
:103350007BC082FD1AC01092EA0580E00E948109BC
:1033600080E00E9473098091E0058D7F84608093E6
:10337000E0050E94CF14DCCFFC0191899073439942
:1033800002C080E0CFCF80E4CDCF9038E9F48FEC5D
:1033900092E00E94D50788E392E00E94D5070E9440
:1033A000440980E00E94810980E00E9473090E9424
:1033B000C40C8091DF05882321F0DF91CF911F910C
:1033C00008950E94CF14F5CF903419F48F7D809327
:1033D000E0058091E00583FFCCCF90914D069923C5
:1033E00059F081FD09C08091330681FF22C0809190
:1033F000E20588608093E20580914C06882371F095
:103400008091E00581FD0AC08C2F0E94730941E084
:103410006DEC7CEC8CEC9DE30E94521C8091E005ED
:1034200081FDA7CF80618093E00582E00E945C026D
:10343000A0CF8D2F0E94810941E06DEC7CEC8CECDB
:103440009DE30E94521CD8CF8091EA058823A1F108
:1034500081FF0AC080914D06882339F180E00E94E7
:1034600081091093EA0585CF8C7009F482CF809191
:103470004D06882399F08FEC92E00E94D50781E4F5
:1034800092E00E94D5070E9444098091330681FF93
:103490000FC08091E20588608093E2058091EA0583
:1034A00083FF03C082E00E945C021092EA0561CFB4
:1034B0008D2F0E948109F2CF8091E20583FF59CFC1
:1034C0008D2F0E9481098091E205877F8093E2051C
:1034D00050CF2F923F924F925F926F927F928F9236
:1034E0009F92AF92BF92CF92DF92EF92FF920F9393
:1034F0001F93CF93DF93CDB7DEB7A2970FB6F894A3
:10350000DEBF0FBECDBF9091DF05911115C1782EA2
:103510009E01235F3F4F3A8F298F89E0D9011D9289
:103520008A95E9F786E08D8BEEEEF5E0FC8FEB8F68
:103530007F01275F3F4F690110E000E0812C912C53
:103540005401872D90E09E8F8D8F802F94E0002373
:1035500021F090E1013009F498E0D6019D936D01CE
:10356000ED8DFE8D02C0F595E7958A95E2F7E0FFB7
:103570001BC020E030E040EC5FEBD70194966D91EA
:103580007D918D919C9197970E942838362E472ED9
:10359000582E692EA50194010E94C63587FD04C0EE
:1035A000832C942CA52CB62C0F5F1F4FB4E0EB0E90
:1035B000F11C0330110549F620903A0630903B0685
:1035C00040903C0650903D0684E0682E01E064EC9B
:1035D00075E0CE0101960E94A00280913506E82F89
:1035E000F0E0FAA3E9A3FE01319624EC35E038A31C
:1035F0002F8F6901F12C10E090E080E0B501A4016B
:1036000070582D8D3E8D082E02C0359527950A9451
:10361000E2F720FF26C0F394D6011D921D921D9261
:103620001C92139729A13AA1082E02C0359527951F
:103630000A94E2F720FF07C0002339F0408351834A
:103640006283738306C00023C9F380829182A282C1
:10365000B382A6E1B0E0AC0FBD1FA80FB91F2C913B
:10366000122B01963496B4E0CB0ED11C8330910519
:1036700041F66F2D70E090E080E00E9478360E9465
:10368000C7381093E405A20191010E9428386D8784
:103690007E878F87988BBE01635F7F4FCE01019637
:1036A0000E941E0AE4E0E093E2050E944C0D0E9495
:1036B00087060023E9F00E94F802FE01769630E0CA
:1036C00020E090E06191462F412359F0AC01022E99
:1036D00002C0559547950A94E2F740FF02C06095F5
:1036E00016232F5F3F4F2330310561F71093E40518
:1036F0000E944C0D8091BE05847309F4B3C01091F3
:10370000BE0514FF03C086E00E944C0215FF03C0F3
:1037100087E00E944C020111C1C00E94F80287217B
:1037200019F088E00E944C028091BF058823E9F0DF
:103730000E942B0D0E948019A2960FB6F894DEBF4E
:103740000FBECDBFDF91CF911F910F91FF90EF90F2
:10375000DF90CF90BF90AF909F908F907F906F90B1
:103760005F904F903F902F90089584E00E94520206
:103770000E94F80C80913E0690913F06019708F058
:1037800076C0E1E00E27C0904006D0904106E09060
:103790004206F0904306002309F470C020E030E0B8
:1037A00040EA50E4C701B6010E9428384B015C0191
:1037B00020903606309037064090380650903906F3
:1037C0006A94611004CF20903506312C2601370110
:1037D00077FA709477F8709410E000E08D8D9E8DEC
:1037E000002E02C0959587950A94E2F780FF26C0C7
:1037F000AB8DBC8D8D909D90AD90BC901397C10109
:10380000002E02C0959587950A94E2F780FF41C08B
:1038100094962D913D914D915C919797C701B6017A
:103820000E94D134A50194010E9428380E94F537E6
:10383000EF8DF8A160837183828393830F5F1F4FA5
:103840002F8D38A12C5F3F4F38A32F8F8B8D9C8DF0
:1038500004969C8F8B8F0330110509F0BFCF109217
:10386000E2056ACF812F8C7109F023CF81CFAFE9B8
:10387000BFE01197F1F700C0000080CF20903A061A
:1038800030903B0640903C0650903D064601570163
:1038900097CFA5019401C301B201C6CF12FF44CF57
:1038A00089E040CF1F93CF93DF93142F411102C0C3
:1038B0001092EB0520E030E040EA51E40E94283805
:1038C0000E94AF350E944936EB012097C9F08091E4
:1038D000DF05811115C0111117C00E948019809158
:1038E000EB0581110BC02FEF80E792E02150804063
:1038F0009040E1F700C000002197E7CF1092EB0560
:10390000DF91CF911F9108950E94CF148091E0051F
:1039100081FFE9CFF5CF0E94A0060E948019809117
:10392000DF05811108C00E941904892BB1F780912D
:10393000DE05883091F30895CF93DF9391E5899F59
:10394000E0011124DD5F40E550E0BE0180EC96E02F
:103950000E949904892B79F41092C0060E948B1C56
:1039600040E550E060EC76E0CE010E94490480E042
:10397000DF91CF91089581E0FBCF0E948B1C1092C4
:10398000ED0508950F931F93CF93C82F8B010E94CD
:103990008B1C2DE0C29FC00111244CE050E0B80107
:1039A0009E5FCF911F910F910C9449041F93CF9369
:1039B000DF93182FEB018DE0189FB00111247E5F7B
:1039C0004CE050E0CE010E949904892B71F48CE008
:1039D000FE0111928A95E9F7BE01812F0E94C21C57
:1039E00080E0DF91CF911F91089581E0FACFEF92AF
:1039F000FF920F931F93CF93DF93CDB7DEB72C9732
:103A00000FB6F894DEBF0FBECDBF182F80FF0BC0DE
:103A100086E5E7ECF1E0AEEEB5E005900D928A9513
:103A2000E1F70E94840411FF10C0CE0101967C01D1
:103A30008CE0F70111928A95E9F700E0B701802F39
:103A40000E94C21C0F5F0830C9F712FF14C060E06B
:103A500080E093E00E94290460E081E093E00E940E
:103A6000290460E081E593E00E94290460E082E59A
:103A700093E00E94290413FF0AC060E08EEA93E0FD
:103A80000E94290460E08FEA93E00E9429042C96AA
:103A90000FB6F894DEBF0FBECDBFDF91CF911F915F
:103AA0000F91FF90EF900895CF939091DE059230A3
:103AB00039F0C82F0E948B1C8C2FCF910C94810958
:103AC000CF910895FF920F931F93CF93DF938C01B3
:103AD000EB018091330685FF23C0F090DE0580E284
:103AE000F81611F1C8010E9465028823C9F081E02F
:103AF0008093E10588E0F8120CC00E945C020E94ED
:103B000080198091DF0581110BC08091DE05811144
:103B1000F6CF0E942B0D82E00E944C020E94801979
:103B20008091DE05823021F10E9480198091DF05AD
:103B300081111EC09091C0028091BF02981303C0F2
:103B40000E94A006F1CFBE01C8010E941E0A811189
:103B50000FC08091330681FF0BC0888584FF08C0A9
:103B600080E1DF91CF911F910F91FF900C94541D34
:103B7000DF91CF911F910F91FF9008952F923F9267
:103B80004F925F926F927F928F929F92AF92BF926D
:103B9000CF92DF92EF92FF920F931F93CF93DF9319
:103BA000CDB7DEB7CC54D1090FB6F894DEBF0FBE47
:103BB000CDBFE5E8F6E08BE3DF011D928A95E9F7DA
:103BC0008CE0E4E4F6E0A6E8B6E001900D928A9578
:103BD000E1F78091C0068432A1F01A8E1BA2312C2D
:103BE000212C1EA61DA610E01B8E1F8EEE24E39432
:103BF000F12C4AE0A42EB12C51E6852E53E0952EEF
:103C00004EC181E0809386061092870683E08A8FFA
:103C1000B1E0BBA3E4CF9FEB9D0D9A3110F00C9463
:103C2000632B8F5F8A8FBE016A5E7F4FCE014A96FB
:103C30000E947F01882311F40C94662B4E885F88C4
:103C4000688C798CC301B2010E940B390E944936FD
:103C5000062F70E090E080E00E947A369B01AC0174
:103C6000C301B2010E94D03420E030E048EC52E4BD
:103C70000E9428380E9495380E944936CB01E7E41B
:103C8000DE1629F1FDE4DF1609F465C1EAEBED0D5E
:103C9000E53108F02CC00E2E000CFF0BEE5AF14E51
:103CA0000C947339F41F771E21202E2039204420D4
:103CB0004F20771E5320771E6120771E6B207520C2
:103CC0007F20771E771E771E8F209C20A920083228
:103CD00009F4DDC030F5043160F4013108F098C01A
:103CE000043009F474C0B0F00A3009F468C084E10B
:103CF00096C00C3109F463C040F40631C0F725E1E9
:103D0000201B2093880626E087C00E3109F457C097
:103D1000063269F74F8D41110C94692BA2E0AF8FE9
:103D200028C00D3309F4AEC0E0F4053309F44FC0E8
:103D300088F40B3211F00133D1F6BF8DB1110C9420
:103D4000692B013309F095C010928B06E3E0EF8FE9
:103D500028E04FC00C3358F6065300938C0629E038
:103D60005BC00C3508F50A3508F073C0003509F062
:103D7000BECF0093860621E0063209F04DC08431A3
:103D8000910551F08E31910539F08832910521F07D
:103D90008233910509F0ABCFB5010E943D396657DA
:103DA0006093860621E025C00C3549F00F3508F0F8
:103DB0009ECF2EE5201B2093870625E02DC000977F
:103DC00031F42F8D21110C94692B31E03F8F00933A
:103DD0008506202F2D7F2C3119F020E00C35E1F4E1
:103DE000009719F00A9709F082CF600F609385065B
:103DF00020E0C70102C0880F991F2A95E2F72DA580
:103E00003EA528233923232B09F443C085E107C0AD
:103E1000015100938A0622E0892B59F387E1C45BA4
:103E2000DF4F0FB6F894DEBF0FBECDBFDF91CF914D
:103E30001F910F91FF90EF90DF90CF90BF90AF90C8
:103E40009F908F907F906F905F904F903F902F90BA
:103E50000895892B29F40A550093890623E0C9CFD8
:103E60006A30710509F043CF0A3509F440CF24E0E8
:103E7000C0CF0A9709F03BCFF1E0F0938B0623E027
:103E80002F8F66CF892B09F032CF2AE0B2CF27E0FF
:103E9000C3CFADA5BEA5A82BB92BBEA7ADA78A8D54
:103EA000E82FF0E0E054F94FD080D110B4CEBB8DB4
:103EB000BB2329F0EF8DE11102C0F2E0FF8F25FE58
:103EC0000FC08091A3069091A406A091A506B09181
:103ED000A60681389649A849B10514F00C94752BB3
:103EE0003BA1332309F442C120FE52C180918806D0
:103EF0008130B1F423E333E34BEC51E4609192065B
:103F00007091930680919406909195060E942838AE
:103F1000609392067093930680939406909395060F
:103F200030FC10C08091500690915106A09152062D
:103F3000B09153068093AF069093B006A093B1065C
:103F4000B093B20680918506843009F03CC126FC0E
:103F500038C18CE164CF892B09F060CF063050F472
:103F6000033098F00430D9F080E10530C9F41092A4
:103F70008F0618C0083008F4BACE0A3048F10E3166
:103F800009F0B5CE00938D0604C0002321F0013066
:103F9000C9F78BE008C0B3E0B0938D06FACF80E29A
:103FA00080938F068CE0F70102C0EE0FFF1F8A9509
:103FB000E2F7CF012DA53EA52E233923232B09F0AF
:103FC00025CF2DA53EA52E2B392B3EA72DA767CF9C
:103FD000093039F080918E06806480938E068DE0E2
:103FE000E2CF10928E06FBCF40929206509293063B
:103FF000609294067092950680E06701082E02C0D8
:10400000CC0CDD1C0A94E2F7960122213321232BEC
:1040100011F00C946F2BD40102C0B595A7958A9529
:10402000E2F7A0FF0BC020E030E0A901C301B2011C
:104030000E94C63587FF02C00C94722B2C283D28A5
:104040002ECF002321F0013031F08DE0D6CF31E0CA
:1040500030939006FACF10929006F7CF40929606D2
:10406000509297066092980670929906116081E0CE
:10407000C4CF40929A0650929B0660929C06709222
:104080009D06126082E0B9CF40929E0650929F0634
:104090006092A0067092A106146083E0AECF0093F8
:1040A000A20684E0AACFC301B2010E944236609307
:1040B000A3067093A4068093A5069093A60685E0B8
:1040C0009CCF4092A7065092A8066092A9067092D3
:1040D000AA0686E092CF4092AB065092AC06609260
:1040E000AD067092AE0687E088CF4092AF06509240
:1040F000B0066092B1067092B20688E07ECF20E0F2
:1041000030E04FE753E4C301B2010E94E8371816CC
:1041100014F40C946C2B0093B30689E06ECF40929C
:10412000B4065092B5066092B6067092B7064B8DF3
:1041300041604B8F8AE061CF4092B8065092B90639
:104140006092BA067092BB068B8D82608B8F8BE07B
:1041500054CF4092BC065092BD066092BE0670924B
:10416000BF069B8D94609B8F8CE047CF8091870624
:10417000813081F44F8D423009F0D2CE8091860695
:10418000803509F4CDCE882309F4CACE20FCC8CEF0
:1041900086E145CE809145068111C2CE20FCA6CE97
:1041A0008091540690915506A0915606B0915706FD
:1041B0008093920690939306A0939406B0939506ED
:1041C000AFCEE89426F880918A06882359F0813092
:1041D00009F4BBC022961FAE2297A2E0ABAFB1E0BC
:1041E000B9AF07C082E022968FAF229791E09BAFD4
:1041F00019AE80918806813071F525E8C22E26E03F
:10420000D22EF12CE12C2B8DA22EB12CC5010E2C1F
:1042100002C0959587950A94E2F780FF12C023E3C8
:1042200033E34BEC51E4D6019F966D917D918D91D6
:104230009C91D2970E942838F60167A770AB81AB9A
:1042400092ABFFEFEF1AFF0A24E0C20ED11C33E05D
:10425000E316F104D9F64F8D433049F480918B0673
:10426000813029F48B8D843011F00C94782B8CE004
:10427000E9E6F6E0DE01119601900D928A95E1F7EC
:10428000ADA5BEA5B1FD69C0009185060A3009F44F
:1042900078C00C3509F419C19F8D933009F43FC0E3
:1042A000AB8DAA23E1F1B0918906BFA3809181066D
:1042B00090918206A0918306B091840689A79AA75F
:1042C000ABA7BCA7E4E4AE2EE6E0BE2EF5E8CF2E09
:1042D000F6E0DF2EF12CE12C9B8D892E912CC40170
:1042E0000E2C02C0959587950A94E2F780FD5DC17A
:1042F000F501818D928DA38DB48DF60187A790ABCA
:10430000A1ABB2ABFFEFEF1AFF0A24E0A20EB11C83
:1043100034E0C30ED11C43E0E416F10401F70E3182
:1043200009F494C1053309F4B8C166E976E086E082
:104330000C3109F02DC10E94D61C882301F18B8D10
:10434000811188C119A61F8EA9C0E1E02296EFAFA6
:1043500022971BAEF2E0F9AF4CCF80918C068730EC
:1043600010F08DE15CCD90914A06891709F48CCF4D
:10437000BE016F5F7F4F0E94D61C811185CF87E001
:104380004ECDBB8DB11102C08AE149CDC10180750E
:104390009927892B09F4DDCD6091A7067091A806B5
:1043A0008091A9069091AA060E940B390E94493675
:1043B0006730B8F68091A206843129F0823009F086
:1043C00096CC27FC94CC662309F474C0615069A78D
:1043D00066E976E089A50E94D61C882381F20091C7
:1043E000A2064090810650908206609083067090ED
:1043F000840695E8C92E96E0D92EF12CE12C3B8D50
:10440000232F30E038A72FA38FA198A50E2C02C030
:10441000959587950A94E2F780FF33C0D6019F9661
:104420008D909D90AD90BC90D297043109F046C01C
:10443000F701EE0FFF1FEE0FFF1FEC5BF94F21A9F5
:1044400032A943A954A9618D728D838D948D0E94E8
:10445000D034A50194010E94D034F601618B728B97
:10446000838B948BF2E0EF120CC0A30192010E94A7
:10447000D03460939E0670939F068093A00690931D
:10448000A106BFEFEB1AFB0AE4E0CE0ED11CF3E06D
:10449000EF16F10409F0B8CF2FEA222280918606A8
:1044A0008FA3803509F000C19B8D992309F406C1C3
:1044B0008FE1B5CCE0918C06E9A78ACF51968D9219
:1044C0009D92AD92BC925497DCCF3B8D332309F47F
:1044D0005BCF40908106509082066090830670907A
:1044E0008406A4E48A2EA6E09A2ECE0101967C01D1
:1044F000B5E8AB2EB6E0BB2ED12CC12CA32FB0E07B
:10450000B8A7AFA38FA198A50C2C02C0959587954D
:104510000A94E2F780FF3EC0F70120813181428199
:104520005381D40159966D917D918D919C915C97A9
:104530000E94D034F50127A530A941A952A90E94B3
:10454000D034D5019F966D937D938D939C93D29794
:10455000B2E0CB120CC0A30192010E94D034609350
:10456000BC067093BD068093BE069093BF06FFEF16
:10457000CF1ADF0A24E0820E911C34E0E30EF11C16
:1045800044E0A40EB11C83E0C816D10409F0BACFF0
:1045900019A684CFF40181A992A9A3A9B4A9F50110
:1045A00087A790ABA1ABB2ABE2CF053309F4AACE9B
:1045B000D6019F964D905D906D907C90D297BFA153
:1045C000B11133C0F701EE0FFF1FEE0FFF1F21E007
:1045D00030E02C0F3D1FE20FF31FD501D1962D9136
:1045E0003D914D915C91D4976081718182819381DD
:1045F0000E94D134A30192010E94D134F60167A731
:1046000070AB81AB92ABF2E0EF127CCE29A53AA55C
:104610004BA55CA50E94D1346093BC067093BD0687
:104620008093BE069093BF066DCEA3019201D50183
:1046300059966D917D918D919C915C970E94D1349A
:10464000F60167A770AB81AB92AB5CCE66E976E012
:1046500087E071CEA4E4B6E0E5E8F6E090E080E023
:104660004B8D242F30E0A901082E02C055954795A7
:104670000A94E2F740FD0AC059964D915D916D9103
:104680007C915C97418B528B638B748B0196149653
:1046900034968330910539F77BCF8091860682303E
:1046A00008F476CF8EE1BBCBAF8DA23039F4BFA139
:1046B000B11176C0EB8DEE2309F490C02BA12170CF
:1046C000EBA1C101E0FFD0C28E7DFF8DF111937E81
:1046D000009729F09F7D892B11F00C94812B8E017E
:1046E000035F1F4F89E0D8011D928A95E9F72223C5
:1046F00009F4BDC28DA59EA5867B892B11F00C9473
:10470000842B80918506853319F081110C94842BBC
:104710008091500690915106A0915206B091530697
:10472000898B9A8BAB8BBC8B80914D0690914C06FC
:10473000892B409192065091930660919406709156
:1047400095064D875E876F87788B84608D8B80910F
:10475000330685FF06C084EB96E00E946502811156
:10476000D6C7B80184EB96E00E94621D8091DE05F9
:1047700081110BC00E941904892B39F080E28093CB
:10478000DE050E944C0D0E9487068CE0E4EBF6E00B
:10479000ADE5B6E001900D928A95E1F780E03FCB60
:1047A00020E030E0A901609192067091930680911B
:1047B0009406909195060E94C635882309F4E8CCAA
:1047C000FFA1FC38B9F060F4F23059F1F33061F137
:1047D000F13009F073CF3B8D311170CF1F8E6ECF4A
:1047E0002FA12E3839F018F02F3809F067CF9BA190
:1047F00090619BA38FA18E58823018F4ABA1A86062
:10480000ABA3BB8DBB2309F4BFCD4CE050E064EB00
:1048100076E08DE596E00E949339892B09F04ECF22
:104820006BC04BA144604BA38B8D882309F4ACCDA6
:10483000B9ADAB2FB0E0BEABADABFBADEF2FF0E051
:10484000FEAFEDAF81E090E07C0109AC02C0EE0C60
:10485000FF1C0A94E2F70BAC02C0880F991F0A9460
:10486000E2F7E82AF92A2B8D822F90E08E219F21F2
:10487000892B09F440C7CD01880F991F880F991F14
:10488000FC01EB57F94F8C5B994FDC0159962D9148
:104890003D914D915C915C9767A570A981A992A902
:1048A0000E94D0342B013C018DAD9EAD880F991F25
:1048B000880F991FFC01EB57F94F8C5B994FDC0176
:1048C00059962D913D914D915C915C9767A570A98A
:1048D00081A992A90E94D0344B015C0127FEF6C049
:1048E000E89427F84CE050E064EB76E08DE596E044
:1048F0000E949339892B11F481E291CA6091AB0631
:104900007091AC068091AD069091AE06209188061C
:10491000213071F423E333E34BEC51E40E94283857
:104920006093AB067093AC068093AD069093AE0691
:104930008091AB069091AC06A091AD06B091AE0609
:1049400089AB9AABABABBCABA3019201C301B20183
:104950000E94283829966CAF7DAF8EAF9FAF299704
:10496000A5019401C501B4010E9428382D966CAFB1
:104970007DAF8EAF9FAF2D9720E030E040E850E450
:1049800069A97AA98BA99CA90E94283829A93AA9C2
:104990004BA95CA90E94283829962CAD3DAD4EAD9F
:1049A0005FAD29970E94D0342D962CAD3DAD4EAD14
:1049B0005FAD2D970E94D0346B017C0120E030E088
:1049C000A9010E94C63587FD99C6C701B6010E949C
:1049D000C7386B017C012D962CAD3DAD4EAD5FAD62
:1049E0002D9729966CAD7DAD8EAD9FAD29970E9418
:1049F000D1340E94C7389B01AC01C701B601905861
:104A00000E94D0356B017C019FA1933021F4F7FA0D
:104A1000F094F7F8F09420E030E0A90169A97AA9B0
:104A20008BA99CA90E94C63587FF11C0F7FAF094A4
:104A3000F7F8F09489A99AA9ABA9BCA9B0588093BA
:104A4000AB069093AC06A093AD06B093AE060DA94D
:104A50001EA9000F111F000F111F0757194FA701A3
:104A60009601C501B4010E9428389B01AC01C30125
:104A7000B2010E94D03420E030E040E05FE30E94C9
:104A80002838D8011D966D937D938D939C935097F4
:104A90000DAD1EAD000F111F000F111F0757194F4D
:104AA000A7019601C301B2010E942838A501940113
:104AB0000E94D13420E030E040E05FE30E942838DB
:104AC000F801658776878787908BF8CDC12ED12C2A
:104AD000E122FD2083E2EF2809F4A1C9F1EF2F22A2
:104AE00080918806813041F505E816E0F12CE12C33
:104AF000C6010E2C02C0959587950A94E2F780FFB7
:104B000012C023E333E34BEC51E4D80151966D918D
:104B10007D918D919C9154970E942838F801618B6A
:104B2000728B838B948BFFEFEF1AFF0A0C5F1F4F82
:104B300023E0E216F104E1F6EDA9FEA9EE0FFF1F56
:104B4000EE0FFF1FE757F94FC584D684E784F0883E
:104B5000A7019601C301B2010E94D0342B013C0190
:104B6000EDADFEADEE0FFF1FEE0FFF1FE757F94F44
:104B700085859685A785B08989AB9AABABABBCAB75
:104B80009C01AD01C501B4010E94D0344B015C0110
:104B9000A3019201C301B2010E9428382B013C01FC
:104BA000A5019401C501B4010E9428389B01AC0104
:104BB000C301B2010E94D1340E94C7384B015C018D
:104BC000A7019601C701B6010E9428386B017C013C
:104BD00029A93AA94BA95CA9CA01B9010E942838A0
:104BE0009B01AC01C701B6010E94D1340E94C738B5
:104BF0006B017C01C092AB06D092AC06E092AD0690
:104C0000F092AE06AC019B01C501B4010E94D03404
:104C10004B015C01E894B7F82AE037ED43E25CE32E
:104C2000C501B4010E94E83718160CF047CD20E00A
:104C300030E040E05FE3C501B4010E94E837181698
:104C40000CF45ACE2FE632E143E05BE3C701B60134
:104C50000E9428389B01AC01C501B4010E94E837CD
:104C600018160CF02BCD48CE8E7D9C7F2ECD8091DA
:104C70003306F0904D0681FF12C08FA18150833022
:104C800018F0BBA1B064BBA3EB8DEE2309F459C1AE
:104C9000FF8DF23009F055C12BA120682BA3809124
:104CA000A3069091A406A091A506B091A6068093B4
:104CB000590690935A06A0935B06B0935C068091C8
:104CC000870680934506882311F088E08D8B8091BC
:104CD000920690919306A0919406B09195068093C8
:104CE000540690935506A0935606B09357068D87A9
:104CF0009E87AF87B88B2091AF063091B006409168
:104D0000B1065091B20660915006709151068091A3
:104D10005206909153060E94C635811103C09BA193
:104D200095FF15C0FF2019F08F2D0E94541D809112
:104D3000AF069091B006A091B106B091B2068093F3
:104D4000500690935106A0935206B0935306ABA120
:104D5000A6FD0CC08091500690915106A09152067C
:104D6000B0915306898B9A8BAB8BBC8B8091B30629
:104D70008093580680918F0690914D06981731F0D8
:104D80000E94541D80918F0680934D068D899091CD
:104D90004D06892B8D8B90914E0680919006981729
:104DA00061F00E948B1C809190068111E1C00E94ED
:104DB0002C028091900680934E06F0908E06809192
:104DC0004C068F1569F08091DE05823029F00E9433
:104DD0008B1C8F2D0E94730980918E0680934C0648
:104DE0008D8990914C06892B8D8B8091850684301E
:104DF00049F58091DE05823029F18090A7069090D8
:104E0000A806A090A906B090AA060E948B1C6091EB
:104E1000E8057091E90590E080E00E9478366B012A
:104E20007C012AE037ED43E25CE3C501B4010E9456
:104E300028389B01AC01C701B6010E94283840E028
:104E40000E94521C80918A068093480680918806B1
:104E500080934606BF8DB33071F580918B068093A9
:104E60004906811108C01092BC061092BD0610922E
:104E7000BE061092BF06C090BC06D090BD06E09062
:104E8000BE06F090BF06A701960160918106709161
:104E9000820680918306909184060E94C6358823FD
:104EA00051F0C0928106D0928206E0928306F09281
:104EB00084060E94BD1C80918C0690914A0698172A
:104EC00069F080934A068CE0FE013196A9E6B6E0CF
:104ED00001900D928A95E1F70E94BD1C8091890690
:104EE0008093470680918506863209F484C008F0D5
:104EF00045C08C3109F465C08E3109F462C08A3036
:104F000009F449C08091860680934406803509F4EF
:104F10004FC3BF8DB23009F04BC3813009F07FC061
:104F2000BE01635F7F4F84EB96E00E94621D8CE0C0
:104F3000E4EBF6E0ADE5B6E001900D928A95E1F77D
:104F400037C330E1F312ABCE9BA19074809144063D
:104F50008150833038F4992309F4A1CE4BA14062EB
:104F60004BA39DCE91119BCE8BA180628BA397CE3C
:104F700081E08093DD053D9A45981BCF8C3509F47F
:104F800040C0863609F443C0883209F0BBCF6DE5D6
:104F900076E087E033C066E976E089A50E94C21C0E
:104FA00080914A06E9A5E813ADCF8CE0E6E9F6E08A
:104FB000A9E6B6E001900D928A95E1F70E94BD1C2A
:104FC000A1CF8D8981608D8BFF8DFF2329F0B801E2
:104FD00084EB96E00E94621DB80186E996E00E948B
:104FE000621D8CE0E6E9F6E0ADE5B6E001900D92D9
:104FF0008A95E1F787CF6DE576E086E00E94C21CD6
:1050000081CF8CE0E4EBF6E0A5E7B6E0D3CFE5E7AF
:10501000F6E08CE0DF011D928A95E9F7CFCF811190
:1050200005C08D8981608D8BB8017DCF8250823023
:1050300008F097C28091AB069091AC06A091AD06A6
:10504000B091AE068F8F98A3A9A3BAA3A9AD94E09F
:10505000A99F70011124F701E35AF94FF8A7EFA3B4
:1050600097012A56394F3AA729A7D9014D905D904B
:105070006D907C902081318142815381C301B201C6
:105080000E94D1346DA77EA78FA798ABEBADB4E09B
:10509000EB9F800111249801235A394F3AAF29AF71
:1050A000C8018A56994F9CAF8BAFDC018D909D90C3
:1050B000AD90BC90F9012081318142815381C501BD
:1050C000B4010E94D13469AB7AAB8BAB9CAB77FA5D
:1050D000709477F87094D501C401B0588B8F9C8F71
:1050E000AD8FBE8FF701EC54F94F2DA53EA54FA50E
:1050F00058A960817181828193810E94D0346B01B3
:105100007C01F801EC54F94F29A93AA94BA95CA9F3
:1051100060817181828193810E94D0344B015C0156
:10512000A7019601C301B2010E9428386DAB7EAB86
:105130008FAB98AFA50194016B8D7C8D8D8D9E8D6D
:105140000E9428389B01AC016DA97EA98FA998AD5A
:105150000E94D1346DAB7EAB8FAB98AFA5019401AB
:10516000C301B2010E9428384B015C01A7019601DE
:105170006B8D7C8D8D8D9E8D0E9428389B01AC019E
:10518000C501B4010E94D0342DA93EA94FA958AD44
:105190000E9450356B017C019BA192FF68C12DEBF1
:1051A00037E346E055EBC701B6010E94E83787FDBB
:1051B0000AC02BED3FE049EC50E4C701B6010E9464
:1051C000D0346B017C018090270690902806A09037
:1051D0002906B0902A062F8D38A149A15AA1CA01EB
:1051E000B9010E94D134A50194010E94D034A501D7
:1051F00094010E9428380E94C7384B015C0120E0CE
:1052000030E040E05FE3C701B6010E9428382F8DEF
:1052100038A149A15AA10E9428389F77A50194017D
:105220000E94D0350E94B5360E9449367EAB6DABE8
:10523000DB01AB2B09F474CE1D8990E080E00E9465
:1052400078364B015C0113FF0EC0AC019B016D85EC
:105250007E858F8598890E9428386D877E878F8705
:10526000988B177F1D8BA5019401C701B6010E9481
:10527000D0356BA37CA38DA39EA32296EFAD22977E
:10528000B4E0EB9FC00111248C01035A194F8C54D8
:10529000994FD8012D913D914D915C91FC01608118
:1052A0007181828193810E94D034A50194010E9472
:1052B000D03529966CAF7DAF8EAF9FAF29972BA1CC
:1052C0003CA14DA15EA1CA01B9010E9428389B01F1
:1052D000AC0160E070E080E090E40E94D0346B01AB
:1052E0007C012BEA3AEA4AE25EE36BA17CA18DA144
:1052F0009EA10E9428384B015C0120E030E040E88C
:1053000050E4C701B6010E94D1349B01AC01C50134
:10531000B4010E94283821966CAF7DAF8EAF9FAF4D
:10532000219720E030E040E05FE3C701B6010E9432
:10533000283825966CAF7DAF8EAF9FAF25971F8E17
:1053400022242394312CEDA9FEA9E215F30509F4DA
:10535000E7CDFF8DFC3008F09EC0A301920121969D
:105360006CAD7DAD8EAD9FAD21970E9428386B014D
:105370007C012B8D3C8D4D8D5E8D25966CAD7DAD6C
:105380008EAD9FAD25970E9428389B01AC01C701C7
:10539000B6010E94D1347B016C01A30192012596D4
:1053A0006CAD7DAD8EAD9FAD25970E9428384B0129
:1053B0005C012B8D3C8D4D8D5E8D21966CAD7DAD50
:1053C0008EAD9FAD21970E9428389B01AC01C5018D
:1053D000B4010E94D0342B013C012F8D2F5F2F8F01
:1053E000470156018B8E9C8EAD8EBE8EA30192011D
:1053F0006DA57EA58FA598A90E94D134EFA1F8A52F
:1054000060837183828393832B8D3C8D4D8D5E8D64
:1054100069A97AA98BA99CA90E94D134A9ADBAAD7A
:105420006D937D938D939C93139729962CAD3DADF1
:105430004EAD5FAD2997F8016081718182819381C2
:105440000E94D134D8016D937D938D939C931397D3
:10545000BE01635F7F4F8DE596E00E94621D8091E3
:10546000DF05811164CDBFEF2B1A3B0A6CCF2DEB0A
:1054700037E346E055E3C701B6010E94C63518166A
:105480000CF4A1CE2BED3FE049EC50E4C701B6018E
:105490000E94D13496CEB10190E080E00E9478362F
:1054A0002BA13CA14DA15EA10E9428386B017C017B
:1054B0000E94CB356B8F7C8F8D8F9E8FC701B6017D
:1054C0000E94B9384B015C01A9A5BAA5CD90DD9029
:1054D000ED90FC90F7FAF094F7F8F094ABADBCAD1A
:1054E0008D919D910D90BC91A02D8F8F98A3A9A314
:1054F000BAA3A70196016B8D7C8D8D8D9E8D0E9428
:1055000028382B013C012F8D38A149A15AA1C50192
:10551000B4010E9428389B01AC01C301B2010E9472
:10552000D1342B013C01A7019601C501B4010E94B1
:1055300028386B017C012F8D38A149A15AA16B8DB0
:105540007C8D8D8D9E8D0E9428389B01AC01C701FA
:10555000B6010E94D0346B8F7C8F8D8F9E8F1F8EF3
:1055600045CF8D8984608D8B8091DE05823009F472
:10557000DECC0E948B1C8091DF05811119C0FBA13C
:10558000F071FF2E1092E3052BA123FB882780F9F1
:105590000E94E60286B184709091C305891719F1C3
:1055A00084E00E944C020E94801980E00E94E60282
:1055B00080918D0680934B06882311F40C940F1F65
:1055C0000E948B1C90914B068091DE05933009F070
:1055D0004DC0823029F088E00E945C020E94801950
:1055E00010924B06DBC8B80184EB96E00E94621D66
:1055F00081E08093DC0582E00E945C020E948019B9
:105600008091DF058111D4CF8091DE058111F6CF25
:105610008091DC05813031F5FF2001F18CE0E4EC74
:10562000F5E0A0EDB5E001900D928A95E1F71092BA
:10563000DC0580E00E94E6020E9480190E94F80CBE
:105640000E94A1090E9484030E9449098091E305F8
:10565000882309F46CCC0E949B09AACF85E00E94A4
:105660004C02E5CF81E08093E305E1CF91E0909398
:105670004406109248061092470610924506109272
:105680004A0610924D0610924C06823089F069E667
:1056900076E080E00E94D61C882311F40C94BF2190
:1056A0000E94BD1C80E00E94810980E00E94730975
:1056B0008FEC92E00E94D50786E692E00E94D50723
:1056C0000E9444098DCF81E00C940F1F82E00C945E
:1056D0000F1F88E10C940F1F86E20C940F1F89E1C5
:1056E0000C940F1F84E00C940F1F8BE10C940F1F80
:1056F00085E20C940F1F80E20C940F1F82E20C9441
:105700000F1F84E20C940F1F80E10C940F1F8FE099
:105710000C940F1FCF93DF93C0E08C2F0E949C1C32
:10572000811114C01092C0068EE30E94A8060E9448
:10573000C4068AE30E94A80687E00E94E707C130FA
:1057400019F4DF91CF910895C1E0E7CF8091C006B1
:105750008823A9F30E94BE1DD82F8EE30E94A806BD
:105760000E94C4068AE30E94A8068D2F0E94F307B8
:10577000E6CF1F920F920FB60F9211242F933F93F3
:105780004F935F936F937F938F939F93AF93BF9349
:10579000EF93FF930E94DC02882321F080FF13C067
:1057A0000E942B0DFF91EF91BF91AF919F918F912F
:1057B0007F916F915F914F913F912F910F900FBE0D
:1057C0000F901F90189582FF06C08091BE058260E1
:1057D0008093BE05E7CF81FFE5CF8091BE0588604D
:1057E000F7CF1F920F920FB60F9211242F933F9372
:1057F0004F935F936F937F938F939F93AF93BF93D9
:10580000EF93FF938091DE05813049F08091BF05D1
:10581000811105C00E942B0D81E00E944C02FF9176
:10582000EF91BF91AF919F918F917F916F915F9118
:105830004F913F912F910F900FBE0F901F90189591
:105840001F920F920FB60F9211248F939F939BB1CB
:105850008091EF018C71937E892B8BB915BC9F9140
:105860008F910F900FBE0F901F9018951F920F925F
:105870000FB60F9211240F931F932F933F934F93C3
:105880005F936F937F938F939F93AF93BF93EF93A8
:10589000FF938091F1018111EAC19BB180910102D6
:1058A000807E9F71892B8BB98BB1837E9091000292
:1058B000892B8BB98091FF0186BD82E085BD81E097
:1058C0008093F10178948091130290911402892BB6
:1058D00009F0A1C08091150290913B02981709F43C
:1058E000C1C1E09115022E2F30E086E0E89FF00163
:1058F0001124E95EFD4FF0931402E09313028281BC
:105900009381909389008093880080819181909306
:105910000F0280930E02E481809110028E1761F1D4
:10592000E093100281E1E89FF0011124E45CFD4F57
:10593000F0931202E093110284859585A685B785C0
:10594000B695A795979587958093FA019093FB015B
:10595000A093FC01B093FD018093F6019093F701B1
:10596000A093F801B093F9018093F2019093F301B1
:10597000A093F401B093F501E0911102F0911202AD
:1059800080899091F00189278093010286E0829FAF
:10599000D001839FB00D1124A95EBD4F15962C91A7
:1059A00080819181A281B381022E04C0B695A79512
:1059B000979587950A94D2F78093020290930302F9
:1059C000A0930402B093050284819581A681B781DA
:1059D000022E04C0B695A795979587950A94D2F79D
:1059E0008093060290930702A0930802B0930902E5
:1059F00080859185A285B38504C0B695A7959795B6
:105A000087952A95D2F780930A0290930B02A09370
:105A10000C02B0930D028091DC058130B1F486B1A7
:105A200084709091C305891781F01092DC058CE099
:105A3000E4ECF5E0A0EDB5E001900D928A95E1F778
:105A40008091BE0580648093BE0510920002809113
:105A5000F2019091F301A091F401B091F501409110
:105A60000202509103026091040270910502840FBA
:105A7000951FA61FB71F8093F2019093F301A09387
:105A8000F401B093F501E0911102F0911202448506
:105A9000558566857785481759076A077B0728F576
:105AA00024E020930002841B950BA60BB70B809378
:105AB000F2019093F301A093F401B093F50180916A
:105AC000C4059091C505A091C605B091C705208970
:105AD00025FFE0C00197A109B1098093C405909307
