:100000000C948C010C949E010C949E010C94B02EC7
:100010000C94D12A0C949E010C94782E0C949E0181
:100020000C949E010C949E010C949E010C941F2B29
:100030000C949E010C949E010C949E010C949E01C4
:100040000C94092B0C949E010C94922D0C944E2E22
:100050000C949E010C949E010C949E010C949E01A4
:100060000C949E010C949E01084AD73B3BCE016E36
:1000700084BCBFFDC12F3D6C74319ABD56833DDAFF
:100080003D00C77F11BED9E4BB4C3E916BAAAABE0E
:10009000000000803F05A84CCDB2D44EB93836A937
:1000A000020C50B9918688083CA6AAAA2ABE000074
:1000B00000803F000D0A4772626C20312E336C7352
:1000C000205B27242720666F722068656C705D0DA9
:1000D0000A00244E005B4F50543A005B5645523A9A
:1000E000312E336C732E32303232303932323A00A4
:1000F0005B544C4F3A005B4739323A0033300032A0
:1001000038005B4700204700204D00204600205467
:100110000033382E005B47433A47005B484C503A67
:10012000242420242320244720244920244E202432
:10013000783D76616C20244E783D6C696E65202494
:100140004A3D6C696E652024534C50202443202482
:1001500058202448207E2021203F206374726C2D7B
:10016000785D0D0A00414C41524D3A007C413A0005
:100170007C4F763A007C57434F3A007C506E3A00F1
:100180007C463A007C42663A007C57506F733A00D6
:100190007C4D506F733A00536C65657000446F6F0F
:1001A000723A00436865636B00416C61726D004890
:1001B0006F6D65004A6F6700486F6C643A00527556
:1001C0006E0049646C65000D0A005B5052423A00B3
:1001D0006572726F723A00CFF7FB42CFF7FB423F76
:1001E0005585430020EE450020EE4500206E450079
:1001F00055574A0055574A0055574A008098C40041
:100200008098C4008098C40A0000FF000AD7233CED
:100210006F12033B00007A4400000000110001004F
:1002200000C84200803B45FA000000C03F00004883
:10023000426F6B700D0A006F6B0D0A00536C6565A1
:1002400070696E6700526573746F72696E672073B0
:1002500070696E646C6500526573746F72696E6765
:100260002064656661756C74730050676D20456E1F
:100270006400436865636B204C696D697473004367
:100280006865636B20446F6F720044697361626CD0
:10029000656400456E61626C6564004361757469F4
:1002A0006F6E3A20556E6C6F636B6564002724484F
:1002B000277C2724582720746F20756E6C6F636B22
:1002C000005B4D53473A0000000000240027002A3D
:1002D0000000000000250028002B00040404040492
:1002E00004040402020202020203030303030301E3
:1002F00002040810204080010204081020010204BA
:10030000081020000000080002010000030407009C
:10031000000000000000000011241FBECFEFD8E055
:10032000DEBFCDBF27E0A0E0B1E001C01D92AB3140
:10033000B207E1F70E94C52E0C94FB3A0C94000022
:10034000E6E1F3E02491E2E0F3E09491EEEEF2E0F6
:10035000E491EE23C9F0222339F0233001F1A8F40F
:10036000213019F1223029F1F0E0EE0FFF1FEF529A
:10037000FD4FA591B4912FB7F894EC91811126C04F
:1003800090959E239C932FBF08952730A9F0283085
:10039000C9F0243049F7209180002F7D03C02091BF
:1003A00080002F7720938000DFCF24B52F7724BDE6
:1003B000DBCF24B52F7DFBCF2091B0002F7720938A
:1003C000B000D2CF2091B0002F7DF9CF9E2BDACF95
:1003D000E2E0F3E02491EEEEF2E08491882399F0DC
:1003E00090E0880F991FFC01E953FD4FA591B4914E
:1003F000FC01EF52FD4F859194918FB7F894EC91E9
:10040000E22BEC938FBF08958F929F92AF92BF9291
:10041000CF92DF92EF92FF920F931F93CF93DF93D0
:100420007C016B01DC01EC91F0E0E553F94F808138
:10043000EF018D3229F52296818101E0912CF0E0C7
:1004400010E020E030E0A9015E01E0EDE80FEA30C5
:1004500018F5FF5FF930E0F491101150A5E0B0E01D
:100460000E94D43A9B01AC01220F331F441F551F39
:100470002E0F311D411D511D2196D5018C91E4CFC8
:100480008B3219F0219600E0D9CF22968181FBCFE3
:10049000911006C01F5FF0CFEE3F29F4911003C00A
:1004A00099249394E9CFFF23F9F0CA01B9010E947E
:1004B000D3374B015C0120E030E0A9010E942137D5
:1004C00081112BC0002309F445C0B7FAB094B7F8E6
:1004D000B094F60180829182A282B382CB5CD64036
:1004E000C150F701C083F1E08F2FDF91CF911F91B1
:1004F0000F91FF90EF90DF90CF90BF90AF909F90C3
:100500008F9008952AE037ED43E25CE3C501B40122
:100510000E9483394B015C011E5F1F3F9CF31F3F0C
:1005200059F42DEC3CEC4CEC5DE3C501B4010E94A8
:1005300083394B015C01C6CF112321F220E030E06A
:1005400040E251E4C501B4010E9483394B015C01D2
:100550001150F2CFD6018D929D92AD92BC9213971D
:10056000BDCF1092E5050E94E80181E090E00C9477
:10057000A0012FB7F8949091C905892B8093C905E4
:100580002FBF08952FB7F8949091C805892B8093B9
:10059000C8052FBF08952FB7F8949091C705892BF0
:1005A0008093C7052FBF08959FB7F8948093C60521
:1005B0009FBF08959FB7F8942091C5058095822329
:1005C0008093C5059FBF08952FB7F8949091C505F6
:1005D000892B8093C5052FBF08958F929F92AF926C
:1005E000BF92CF92DF92EF92FF920F931F93CF9320
:1005F000DF93E0903C06F12C6C01C5EFD5E010E0F4
:1006000000E0F60181909190A190B1906F01C70137
:10061000002E02C0959587950A94E2F720E030E01D
:10062000A90180FF16C0C501B4010E94213787FDD2
:100630000BC06CA17DA18EA19FA19058A501940132
:100640000E94213787FF15C081E018C001E010E04B
:10065000D8CFC501B4010E9443391816ACF3A501E7
:1006600094016CA17DA18EA19FA10E94433918160F
:100670005CF324960130110549F780E0DF91CF91BA
:100680001F910F91FF90EF90DF90CF90BF90AF90B0
:100690009F908F9008958F929F92AF92BF92CF922A
:1006A000DF92EF92FF920F931F93CF93DF93EB01B3
:1006B00025EFE22E25E0F22E8C016B018CE0C80EB6
:1006C000D11C6991799189919991F70181909190CB
:1006D000A190B1907F010E94D537A50194010E949D
:1006E0002B37F80161937193819391938F01CC150E
:1006F000DD0539F7DF91CF911F910F91FF90EF90BA
:10070000DF90CF90BF90AF909F908F90089596B15B
:10071000892F837229F0892F8095817091FF8260E3
:100720000895CF93DF93C091C305D091C40520975E
:10073000C9F0809199058160809399056091AF051A
:100740007091B0058091B1059091B2059B01AC010B
:100750000E9483396A8B7B8B8C8B9D8B1092C40596
:100760001092C305DF91CF91089590912606492FED
:1007700080912706282F90FF11C094E080FF10C0C1
:1007800080E241FD986021FD806442FD906122FD80
:1007900080689093130280931402089590E0EECF46
:1007A00080E0EFCF80913A0682FF13C0289A8091B3
:1007B000130280932402809125068250990B880FA2
:1007C00081958093230280916F00826080936F00F7
:1007D00008952898ECCF2C980895249A259A0C9483
:1007E000EB03E0911E0191E09E0F993609F490E031
:1007F00020918801291761F0F0E0E15EFE4F8083CF
:1008000090931E018091C10080628093C10004C05A
:100810002091C50524FFECCF0895CF93DF93CBEC57
:10082000D6E08991811103C0DF91CF9108950E9494
:10083000F103F7CF86B18470909101018927089563
:100840001092010190913A0697FD03C094E09093B5
:100850000101882331F08091010194E08927809380
:10086000010108958F929F92AF92BF92CF92DF9233
:10087000EF92FF920F931F93CF93DF93CDB7DEB725
:100880002D970FB6F894DEBF0FBECDBF6B017C0174
:10089000042F20E030E0A9010E94213787FF07C024
:1008A0008DE20E94F103F7FAF094F7F8F094102F1C
:1008B000123008F054C000FF0AC020E030E040E2EF
:1008C00051E4C701B6010E9483396B017C0120E02D
:1008D00030E040E05FE3C701B6010E942C360E9481
:1008E0009D3710E03AE0832E912CA12CB12CE12F02
:1008F000F0E06115710581059105E9F581E090E071
:100900008C0F9D1FE80FF91F80E3101708F445C0F6
:10091000101309C0E1E0F0E0EC0FFD1FE10FF11D45
:1009200080E380831F5FEE24E394F12CEC0EFD1E28
:10093000E10EF11C111134C02D960FB6F894DEBFF4
:100940000FBECDBFDF91CF911F910F91FF90EF9020
:10095000DF90CF90BF90AF909F908F90089520E050
:1009600030E048EC52E4C701B6010E9483396B01C4
:100970007C0112509DCFEE24E394F12CEC0EFD1E71
:10098000EE0EFF1EA50194010E94AC3A605DF701D6
:100990006083B901CA011F5FAACF1F5F8193B5CFE2
:1009A000101303C08EE20E94F103F70182917F01D0
:1009B0000E94F1031150BECF20913A0640E020FF83
:1009C00007C02BE832E441E25DE30E94833941E055
:1009D0000C94320420913A0643E020FF07C02BE834
:1009E00032E441E25DE30E94833944E00C94320436
:1009F0000F931F93CF938C01C0E0F8016191719127
:100A0000819191918F010E94EA04C23019F08CE229
:100A10000E94F103CF5FC33081F7CF911F910F91F7
:100A20000895CF93DF93843658F06AE00E948C3AA1
:100A3000C0E3C90F6AE00E948C3AD0E3D90F04C02A
:100A4000C0E0D0E08A30B0F7805D0E94F103DD2382
:100A500019F08D2F0E94F103CC2329F08C2FDF9108
:100A6000CF910C94F103DF91CF910895CF93DF9351
:100A7000EC01FE0184912196811103C0DF91CF9199
:100A800008950E94F103F5CF87EC91E00C943605B0
:100A9000CF93C82F80ED91E00E9436058C2F0E94E5
:100AA0001105CF910C944405882321F0883231F050
:100AB0000C94480587E392E00C94360581E392E0BC
:100AC000FBCFCF92DF92EF92FF92CF93DF93D82F9D
:100AD0006A017B01C22F84E20E94F1038D2F0E94E4
:100AE00011058DE30E94F1034C2FC701B6010E944E
:100AF0003204DF91CF91FF90EF90DF90CF900C9474
:100B00004405CF93DF93D82FC62F84E20E94F103D0
:100B10008D2F0E9411058DE30E94F1038C2F0E94FE
:100B20001105DF91CF910C944405EF92FF920F9342
:100B30001F93CF93DF936091250670E080E00E94C1
:100B400081056091280670E081E00E948105609136
:100B5000260670E082E00E9481056091270670E021
:100B600083E00E94810560913A0662FB662760F986
:100B700070E084E00E94810560913A0666FB66277A
:100B800060F970E085E00E94810580913A06082EA8
:100B9000000C990B692F661F6627661F70E086E0C0
:100BA0000E9481056091290670E08AE00E9481051B
:100BB00040912A0650912B0660912C0670912D06CB
:100BC00023E08BE00E94610540912E0650912F0694
:100BD000609130067091310623E08CE00E9461053F
:100BE00060913A06617070E08DE00E94810560912D
:100BF0003A0665FB662760F970E084E10E94810592
:100C000060913A0663FB662760F970E085E10E9417
:100C1000810560913A066295617070E086E10E94FC
:100C2000810560913C0670E087E10E94810540915A
:100C30003D0650913E0660913F067091400623E0CC
:100C400088E10E9461054091410650914206609101
:100C500043067091440623E089E10E94610560919A
:100C60004506709146068AE10E948105409147063B
:100C7000509148066091490670914A0623E08BE145
:100C80000E9461054091320650913306609134060E
:100C90007091350620E08EE10E9461054091360694
:100CA00050913706609138067091390620E08FE147
:100CB0000E94610570E060E080E20E948105609121
:100CC0003B06617070E088E20E94810540914B060E
:100CD00050914C0660914D0670914E0623E086E4DB
:100CE0000E94610584E6F82E10E0C5EFD5E000E033
:100CF000E02EEF0C123011F1133069F11130C9F010
:100D0000488159816A817B8123E08E2D0E94610593
:100D10000F5F2496033061F78AE0F80E1F5F8CE8BE
:100D2000F812E3CFDF91CF911F910F91FF90EF90D9
:100D300008954C855D856E857F85E6CF20E030E0A7
:100D400041E655E4688D798D8A8D9B8D0E942B3705
:100D5000AB01BC01D9CF4CA15DA16EA17FA17058A0
:100D6000D3CF8DE50E94F1030C944405CF93DF931C
:100D7000CDB7DEB72C970FB6F894DEBF0FBECDBF50
:100D80008AEC91E00E94360568ED75E0CE0101968F
:100D90000E944B03CE0101960E94F8048AE30E9450
:100DA000F1038091EB050E9411050E94B1062C967B
:100DB0000FB6F894DEBF0FBECDBFDF91CF9108957F
:100DC000E2E0F1E0ACECB5E04D915D916D917C918C
:100DD0001397408351836283738314964D915D9181
:100DE0006D917C911797448355836683778318961A
:100DF0008D919D910D90BC91A02D80879187A287A8
:100E0000B3870895BF92CF92DF92EF92FF920F9334
:100E10001F93CF93DF937C01FC0102A513A5D4A5FA
:100E2000C5A5818980FF33C06091EE0570E090E038
:100E300080E00E94D5372AE037ED43E25CE30E9470
:100E400083399B01AC01B8018D2F9C2F0E948339FF
:100E50008B01D82FC92F20E030E040E85FE3B801D4
:100E60008D2F9C2F0E944339181624F000E010E0CB
:100E7000D0E8CFE3B8018D2F9C2FDF91CF911F9148
:100E80000F91FF90EF90DF90CF90BF90089582FD7B
:100E900017C06091ED0570E090E080E00E94D537CA
:100EA0002AE037ED43E25CE30E9483399B01AC0109
:100EB000B8018D2F9C2F0E9483398B01D82FC92F09
:100EC000F701B6A0C7A0D0A4F1A498014D2F5C2FC4
:100ED0006B2D7C2D8D2D9F2D0E94213787FFBBCF41
:100EE0000B2D1C2DDD2DCF2DB6CF80913A02909188
:100EF0001B05981739F02EE2829FC0011124855CF2
:100F00009D4F089590E080E008950E947507892B19
:100F100019F082E00C94E40208952F923F924F92D0
:100F20005F926F927F928F929F92AF92BF92CF9279
:100F3000DF92EF92FF920F931F93CF93DF9300D036
:100F400000D0CDB7DEB700911B05002309F486C0A1
:100F5000098339813150398310913902131709F40B
:100F600066C0C32ED12CEEE23E9FC00111249C012D
:100F7000255C3D4F7901F90176888788908CA18C9A
:100F8000628D738D848D958D9B01AC010E942C36F2
:100F9000F701268D378D40A151A10E948339B62ECD
:100FA000E72EF82E9B83262F372F482F592F672D9A
:100FB000782D892D9A2D0E94213787FF03C0B72CE9
:100FC0007401AB828EE28C9DF0018D9DF00D112499
:100FD000E55CFD4F8B2D9E2DAF2DBB81828B938BBE
:100FE000A48BB58BF9818F2FF11101C080E1FF2413
:100FF000FA94F80E30903A021F1133C0131102C058
:101000000E949103EEE21E9FC0011124855C9D4F5A
:101010009A83898333243394310EF0E13F1201C067
:10102000312C8EE2282E031185C0109339020F90C7
:101030000F900F900F90DF91CF911F910F91FF9024
:10104000EF90DF90CF90BF90AF909F908F907F9068
:101050006F905F904F903F902F90089520E12983EB
:1010600078CF29818EE2289F90011124255C3D4F85
:101070003C832B832EE2E22E8F2C912CFE9CC00110
:101080001124FC01E55CFD4FFA83E983F11002C0F5
:1010900090E1F92EFA94F31002C00E949103E89CAB
:1010A000C001E99C900D11249C01255C3D4F690114
:1010B000F90146885788608C718CA301920162897E
:1010C0007389848995890E942137882339F1F60133
:1010D000628D738D848D958D9B01AC010E942C36A1
:1010E000F601268D378D40A151A10E948339EB81F5
:1010F000FC8122893389448955890E942C364B0111
:101100005C01AC019B01C301B2010E944339F601AD
:1011100018165CF4828A938AA48AB58A29813A8156
:101120003C832B831F11A8CF6DCF428A538A648AD8
:10113000758AF4CFC32CD12C329CC00111249C01A0
:10114000255C3D4F7901E981FA81428853886488A2
:101150007588F90182889388A488B588A5019401CF
:10116000C301B2010E94213787FF26C0E981FA81BD
:10117000628D738D848D958D9B01AC010E942C3600
:10118000E981FA81268D378D40A151A10E948339D2
:10119000A30192010E942C362B013C01AC019B0162
:1011A000C501B4010E944339181634F4F701428A8C
:1011B000538A648A758A132D2C9CF0012D9CF00DA6
:1011C0001124E55CFD4F26893789408D518D628958
:1011D0007389848995890E942137811101C0132D5B
:1011E0003394F0E13F1201C0312CFA82E9821BCF27
:1011F0006F927F928F929F92AF92BF92CF92DF9227
:10120000EF92FF920F931F93CF93DF93EB018C012B
:101210005B018CE0A80EB11C89E9682E96E7792E57
:1012200026E9822E3EE7932EC990D990E990F99055
:1012300020E030E0A901C701B6010E9421378823D0
:10124000B9F0A7019601F8016081718182819381D3
:101250000E942B376B017C01E894F7F89301A401FD
:10126000C701B6010E944339181614F03601470130
:101270000C5F1F4FCA15DB05B9F6B301C401DF913E
:10128000CF911F910F91FF90EF90DF90CF90BF9083
:10129000AF909F908F907F906F90089583B19091C1
:1012A0003A0696FF09C0867059F081FB992790F99C
:1012B000847021F4892F08958095F5CF892F82605D
:1012C0000895EBE6F0E08081897F8083E8E6F0E036
:1012D00080818E7F80830895CF939091E70591114F
:1012E00019C090913B0690FD15C0C82F811114C004
:1012F0000E94EB0380913A0683FF0AC080916B0045
:10130000866080936B0080916800816080936800A4
:101310001092F305CF9108950E946109C03119F42C
:101320002D982C9AF5CF2D9AFCCF84B1897F84B962
:1013300085B1866085B980913A0683FF16C0809199
:101340006B00866080936B00809168008160809361
:10135000680084B7877F84BF809160008861809334
:10136000600081E08093600008950E946109F1CFE0
:101370006CEC75E088E696E00C944B03F894F999D0
:10138000FECF92BD81BD81E08FBB20B5862F822725
:10139000082E000C990B50E086239523892B49F0E9
:1013A00084E16F3F11F060BD84E08FBBF99A7894BF
:1013B00008952617E1F360BD84E2F7CF9F92AF92C4
:1013C000BF92CF92DF92EF92FF920F931F93CF9332
:1013D000DF935C018A017B01E40EF51EEB01912C89
:1013E0006C01C61AD70ACE018C0D9D1D21E091100B
:1013F00007C0292D990C330B232F221F2227221FD0
:101400006991962E920E0E94BE09CE15DF0559F7FE
:10141000692DC501800F911FDF91CF911F910F9111
:10142000FF90EF90DF90CF90BF90AF909F900C9483
:10143000BE096AE090E080E00E94BE094AE550E003
:1014400065EF75E081E090E00C94DE09F999FECF3C
:1014500092BD81BD81E08FBB80B508959F92AF9210
:10146000BF92CF92DF92EF92FF920F931F93CF9391
:10147000DF935B018A017C01E40EF51EEC01912CE7
:101480006B01C81AD90AC6018C0F9D1F0E94260A3B
:1014900021E0911007C0292D990C330B232F221F17
:1014A0002227221F982E920E8993CE15DF0559F719
:1014B000C501800F911F0E94260A21E030E08915A6
:1014C00011F030E020E0C901DF91CF911F910F9121
:1014D000FF90EF90DF90CF90BF90AF909F900895D6
:1014E0009091E705911105C086FF04C0439A1092C0
:1014F000F30508954398FBCFE2E0F1E08CE1DF01D2
:101500001D928A95E9F710923A0210921B0581E02C
:10151000809300011092390208954F925F926F926A
:101520007F92AF92BF92CF92DF92EF92FF920F9392
:101530001F93CF93DF93EC015C012CE0A20EB11C52
:101540008C01C12CD12C7601F80141905190619011
:1015500071908F0120E030E0A901C301B2010E9427
:101560002137882371F0A3019201C301B2010E94C7
:1015700083399B01AC01C701B6010E942C366B0177
:101580007C010A151B0501F7C701B6010E94223A2A
:101590006B017C01AC019B0160E070E080E89FE39F
:1015A0000E942B372B013C01699179918991999186
:1015B0005E01F4E0AF1AB108A30192010E948339E1
:1015C000F5016083718382839383C017D10761F72C
:1015D000C701B601DF91CF911F910F91FF90EF905E
:1015E000DF90CF90BF90AF907F906F905F904F90C3
:1015F00008952F923F924F925F926F927F928F92B7
:101600009F92AF92BF92CF92DF92EF92FF920F9391
:101610001F93CF93DF93CDB7DEB7C654D1090FB672
:10162000F894DEBF0FBECDBF2091EA052AA320FDAE
:10163000E0C624702BAB30911B0539AF4EE2349FCE
:10164000C0011124DC01A55CBD4F2396BFAFAEAF36
:101650002397BAA1B270BCAB40913A024AAF4F5F38
:101660004D8F403109F457C74BAF5EE2ABAD5A9F87
:10167000C0011124FC01E35BFD4F2596FFAFEEAFE7
:10168000259790911C0580911D05981709F4B1C606
:101690008091C3059091C405892B09F079C0EBA90D
:1016A000EE2309F40EC223962EAD3FAD239730935F
:1016B000C4052093C3054091C3055091C4055A87C2
:1016C0004987452B09F495C61091990510FF00C272
:1016D000109299051092AB051092AC051092AD05D1
:1016E0001092AE05A985BA855A962D913D914D91DE
:1016F0005C915D9729833A834B835C8360E070E063
:1017000080E09FE30E942B376D837E838F839887D1
:10171000E985FA85468C578C60A071A082889388F1
:10172000A488B588FCA9FF2309F4A0C222E0209375
:10173000AA05A50194010E9483399B01AC01C30154
:10174000B2010E942B366B017C0120E030E0A90140
:101750000E94213787FF79C229813A814B815C81C0
:10176000CA01B9010E942C36A30192010E9483395B
:101770009B01AC01C501B4010E942B360E94223AA4
:101780006093B7057093B8058093B9059093BA0537
:1017900080914205482F50E05A8B498B86E0849F08
:1017A000F001859FF00D1124E25EFA4F80919805BB
:1017B0008483A091C305B091C405BE87AD875E96B2
:1017C000BC91BFA3ED85FE85F78DF8A7AD85BE85DD
:1017D0009096BC91B9A7ED85FE85F1A1FAA720915D
:1017E000A6053091A7054091A8055091A9056FA1C4
:1017F00078A58B2F9F2F0E942B366DAB7EAB8FABC6
:1018000098AF20E030E0A9010E94213787FF04C093
:101810001DAA1EAA1FAA18AE2091B3052D8B3091C8
:10182000B4053E8B4091B5054F8B5091B605588F4E
:101830008091BB058E8F9091BC059F8FA091BD05B7
:10184000A8A3B091BE05B9A33090AF052090B00514
:10185000E091B1052796EFAF2797F091B205269654
:10186000FFAF26972091BF052BA73091C0053CA75D
:101870004091C1054DA75091C2055EA78091AA0570
:1018800089879091AB059FA7A091AC05A8ABB091BB
:10189000AD05B9ABE091AE05EAABF091B705FDAF90
:1018A0002091B8052EAF3091B9053FAF4091BA05F0
:1018B00021964FAF21972BA53CA54DA56E8D7F8D11
:1018C00088A199A10E942137811159C352E05CAFD0
:1018D0009FA1998FA8A5AA8FB9A5BB8FEAA5EC8F68
:1018E0008EE3C82E83ECD82E8EE2E82E89E3F82E04
:1018F000412C512C3201A70196012BA33CA34DA3EF
:101900005EA35985513009F4F7C3AD85BE855130CA
:1019100008F46FC3533009F025C45A962D913D91B8
:101920004D915C915D97C701B6010E9483394B01CF
:101930005C012D893E894F89588D632D722D279624
:101940008FAD279726969FAD26970E942B369B0139
:10195000AC01C501B4010E94433987FD1AC32E8D25
:101960003F8D48A159A16FA178A589A59AA50E948C
:101970002B369B01AC010E942C366B017C012D891A
:101980003E894F89588D632D722D27968FAD2797ED
:1019900026969FAD26970E942C369B01AC01C7016D
:1019A000B6010E942B376B017C013D882E88BF89D0
:1019B0002796BFAF2797E88D2696EFAF26970E8D17
:1019C0001F8DF8A1F98329A12D8331E03987A70163
:1019D0009601C301B2010E942C362B013C012BA1C0
:1019E0003CA14DA15EA10E94213787FF3CC4A30109
:1019F00092016BA17CA18DA19EA10E942B366B014F
:101A00007C01980149815D816FA578A989A99AA96E
:101A10000E94213787FDB6C2832D922D2796AFAD48
:101A200027972696BFAD26978093AF059093B00574
:101A3000A093B105B093B20539853093AA052091E2
:101A4000A2053091A3054091A4055091A505B801C8
:101A500089819D810E94833969877A878B879C87DA
:101A60000E940A376B017C0160919E0570919F0571
:101A70008091A0059091A1050E940A374B015C015D
:101A8000A70196010E942B360E94A4376D877E879E
:101A90008F87988BA6E089899A89A89FF001A99FD2
:101AA000F00D1124E25EFA4F2D853E8531832083AF
:101AB000232B09F008C45CA9552309F404C48AA1A6
:101AC00095C40E9475079093C4058093C305F3CD18
:101AD000809198058F5F853009F480E080939805A8
:101AE000482F50E091E1949FF001959FF00D112453
:101AF000ED5BFA4FA985BA8550969C915097908BD3
:101B0000E1E18E9FC001112430E020E0CD90DD9016
:101B1000ED90FD90FC01E20FF31FED5BFA4F63E0E7
:101B2000CC0CDD1CEE1CFF1C6A95D1F7C082D18263
:101B3000E282F3822C5F3F4F2C30310539F7A985C3
:101B4000BA851C966D917D918D919C911F97B1E105
:101B5000B49F9001B59F300D1124F901ED5BFA4F50
:101B60006B017C0123E0CC0CDD1CEE1CFF1C2A95D4
:101B7000D1F7C486D586E686F7860E94D337609370
:101B80009E0570939F058093A0059093A105E9851C
:101B9000FA85268D378D40A151A10E942B379B01DC
:101BA000AC012093A2053093A3054093A405509364
:101BB000A50560E070E080EA9FE30E942B37609308
:101BC000A6057093A7058093A8059093A905109288
:101BD0009A0510929B0510929C0510929D05FCA9F8
:101BE000F11102C013FF20C06091B7057091B805D4
:101BF0008091B9059091BA056093AF057093B005D7
:101C00008093B1059093B2059B01AC010E9483398A
:101C1000A985BA8552966D937D938D939C93559724
:101C2000177F1093990556CDE985FA8562897389E6
:101C3000848995890E94223A6093AF057093B0051C
:101C40008093B1059093B20545CDC092AB05D0927B
:101C5000AC05E092AD05F092AE051092B70510927A
:101C6000B8051092B9051092BA0592CD1092AA0546
:101C70004092BB055092BC056092BD057092BE05B6
:101C80003BA9332309F46AC01092B7051092B80536
:101C90001092B9051092BA05C12CD12C7601898514
:101CA0009A850E9402076D877E878F87988B9B019C
:101CB000AC010E94833969877A878B879C87A5014D
:101CC00094010E94213787FF8BC029853A854B8577
:101CD0005C85C501B4010E942B362D813E814F8168
:101CE00058850E9483399B01AC01C301B2010E9457
:101CF0002B366093BB057093BC058093BD05909314
:101D0000BE0520E030E0A9010E94213718160CF42E
:101D100041C0B2E0B093AA0529813A814B815C8130
:101D2000CA01B9010E942C36A30192010E94833995
:101D30009B01AC01C501B4010E942B360E94223ADE
:101D40006093B7057093B8058093B9059093BA0571
:101D5000809199058860809399051ACD49AD5BAD56
:101D6000C12CD12C7601451741F02596AEADBFAD03
:101D70002597CD90DD90ED90FC90C701B6010E94B3
:101D8000223A6093B7057093B8058093B905909394
:101D9000BA0585CFA701960169857A858B859C85D3
:101DA0000E942B362D813E814F8158850E948339B8
:101DB0006093BF057093C0058093C1059093C205E1
:101DC0002D853E854F8558892093B3053093B40502
:101DD0004093B5055093B60533E03093AA05D8CCAF
:101DE000A7019601C501B4010E942B362D813E81C9
:101DF0004F8158850E948339A30192010E942C369D
:101E000020E030E040E05FE30E948339698B7A8B09
:101E10008B8B9C8B20E030E0A9010E94433918167F
:101E20000CF094C0A301920169897A898B899C89FD
:101E30000E94213787FF88C0A701960169857A85AE
:101E40008B859C850E942B362D813E814F81588544
:101E50000E9483399B01AC012093BF053093C005DC
:101E60004093C1055093C20569897A898B899C8901
:101E70000E9443391816BCF58D859E85AF85B889BB
:101E80008093B3059093B405A093B505B093B605C0
:101E9000A501940169857A858B859C850E942137EF
:101EA000811104C091E09093AA0572CCA501940120
:101EB00069857A858B859C850E942B362D813E8194
:101EC0004F8158850E9483399B01AC01C301B20147
:101ED0000E942B366093BB057093BC058093BD05B3
:101EE0009093BE0555CC29893A894B895C8920930A
:101EF000BB053093BC054093BD055093BE052093B0
:101F0000BF053093C0054093C1055093C205298198
:101F10003A814B815C81CA01B9010E942C36298922
:101F20003A894B895C890E948339A70196010E94F6
:101F30002C360E94223A6093B3057093B4058093C7
:101F4000B5059093B60524CC32E047CF8091B70514
:101F50009091B805A091B905B091BA051092BB0552
:101F60001092BC051092BD051092BE058093B3057A
:101F70009093B405A093B505B093B60509CC81E064
:101F80008CAFA6CC098F1A8F39813B8F4D814C8F36
:101F9000B8CC20E030E040E05FE3C501B4010E942E
:101FA00083399B01AC01632D722D27968FAD279746
:101FB00026969FAD26970E942B36A70196010E9478
:101FC00083399B01AC01698D7A8D8B8D9C8D0E942C
:101FD0002B368B0189839D83A5019401632D722D7E
:101FE00027968FAD279726969FAD26970E942B3672
:101FF0007AC05A962D913D914D915C915D97C701A4
:10200000B6010E9483394B015C0120E030E040E0E2
:102010005FE30E948339232D322D27964FAD2797FA
:1020200026965FAD26970E942C36A70196010E9446
:1020300083399B01AC01698D7A8D8B8D9C8D0E94BB
:102040002B368B0189839D839B01AC016E8D7F8D27
:1020500088A199A10E9443391816CCF52E8D3F8D89
:1020600048A159A16FA178A589A59AA50E942B36F0
:102070009B01AC010E942C366B017C012D893E89AD
:102080004F89588D632D722D27968FAD27972696F1
:102090009FAD26970E942C369B01AC01C701B6016B
:1020A0000E942B376B017C01BCADB9873D882E881F
:1020B000EF892796EFAF2797F88D2696FFAF2697E3
:1020C0000E8D1F8D28A1298339A13D8380CCA501C8
:1020D0009401632D722D27968FAD279726969FAD7D
:1020E00026970E942C36362E272E27968FAF2797BD
:1020F00026969FAF26976BCC2D893E894F89588DA8
:10210000C701B6010E9483399B01AC01698D7A8DAC
:102110008B8D9C8D0E942B368B0189839D832BA5F3
:102120003CA54DA55EA50E94213787FF50CC2BA56D
:102130003CA54DA55EA5698D7A8D8B8D9C8D0E94E9
:102140002B362D893E894F89588D0E942B376B0184
:102150007C010BA51CA54DA549835EA55D8382E08E
:10216000898735CC5A962D913D914D915C915D9723
:10217000C701B6010E9483394B015C01AC019B0190
:10218000632D722D27968FAD279726969FAD2697A4
:102190000E944339181664F520E030E040E05FE328
:1021A000C501B4010E9483399B01AC01632D722DDE
:1021B00027968FAD279726969FAD26970E942B36A0
:1021C000A70196010E9483399B01AC01698D7A8D2C
:1021D0008B8D9C8D0E942B368B0189839D832FA52F
:1021E00038A949A95AA90E94433918160CF4F4CE0B
:1021F0002FA538A949A95AA9698D7A8D8B8D9C8DF7
:102200000E942B369B01AC010E942C366B017C0195
:102210002DAD3EAD4FAD21965FAD2197632D722D53
:1022200027968FAD279726969FAD26970E942C362E
:102230009B01AC01C701B6010E942B376B017C01E9
:102240003DAC2EACBFAD2796BFAF27972196EFAD23
:1022500021972696EFAF26970FA518A9F9A9F9831C
:102260002AA92D83B4CB2DA93EA94FA958ADB801F9
:1022700089819D810E94433918168CF42EE333EC3A
:102280004EE259E36BA17CA18DA19EA10E942C3648
:102290006BA37CA38DA39EA3A3019201AECB832D40
:1022A000922D2796AFAD27972696BFAD26978093A0
:1022B000AF059093B005A093B105B093B2054985E1
:1022C0004093AA05BCCB20919A0530919B05409183
:1022D0009C0550919D05C301B2010E942C362B0133
:1022E0003C0129853A854B855C85C501B4010E9476
:1022F0002B369B01AC01C301B2010E942B374B016D
:102300005C0120EC31EE44E65EE40E9483390E94D9
:102310000A370E94A437603DA7E07A07810591053E
:1023200008F081C046E029893A89429FF001439F25
:10233000F00D1124E25EFA4F158246E029893A89B0
:10234000429FF001439FF00D1124E25EFA4F738328
:10235000628380911D05809342058F5F863009F46A
:10236000BBC080931D05E091C305F091C405C80171
:10237000A981BD81868F978FA0A3B1A3C0929E052E
:10238000D0929F05E092A005F092A10529853A859B
:102390004B855C85C701B6010E942B36A5019401CF
:1023A0000E94833960939A0570939B0580939C05E6
:1023B00090939D052091AB053091AC054091AD0502
:1023C0005091AE05B80189819D810E94213781110C
:1023D00058C920E030E0A901B80189819D810E949F
:1023E000433918160CF07BC08091EA058160809318
:1023F000EA05CA5BDF4F0FB6F894DEBF0FBECDBF54
:10240000DF91CF911F910F91FF90EF90DF90CF90D0
:10241000BF90AF909F908F907F906F905F904F9004
:102420003F902F900895603A5FE075078105910510
:10243000A0F526E0A989BA892A9FF0012B9FF00D0B
:102440001124E25EFA4F31E0358346E029893A896A
:10245000429FF001439FF00D1124E25EFA4F258167
:10246000022E04C096958795779567950A94D2F7C2
:10247000AD85BE8502C0AA0FBB1F2A95E2F7B183C6
:10248000A08361157105B1E08B07910508F455CF64
:102490008FEF9FEF938382835CCF60344FE17407AB
:1024A0008105910560F426E0A989BA892A9FF00187
:1024B0002B9FF00D1124E25EFA4F32E0C5CFA6E06B
:1024C00049895A89A49FF001A59FF00D1124E25E6D
:1024D000FA4FB3E0B583B9CF10921D0544CF9BA945
:1024E0009111EDCA1092C4051092C305A9ADBAAD01
:1024F000AB1709F4C6C8ED8DE03109F41D8E80914B
:102500003902FAADF81303C02D8D209339023D8DA9
:1025100030933A02A1C81BAEA8C82F923F924F92A7
:102520005F926F927F928F929F92AF92BF92CF9263
:10253000DF92EF92FF920F931F93CF93DF93CDB76C
:10254000DEB7C254D1090FB6F894DEBF0FBECDBFBF
:102550003B0100911B05202E312C2EE2029FA00191
:102560001124BA01655C7D4F7AAF69AFFB0111920E
:102570002A95E9F7F3012085FB01218B21FFF0C0AB
:102580002CE0ECECF5E0DE01599601900D922A95D5
:10259000E1F789AB9AAB25EF35E021963FAF2EAF3F
:1025A0002197BE01635F7F4F7EAF6DAFCE0149962D
:1025B0009CAF8BAFE9ADFAADF8AFEFAB9E012B5DF1
:1025C0003F4F3CAB2BAB3EAB2DAB10E08EE2829D80
:1025D0002001839D500C1124B201655C7D4F2B01BD
:1025E000CB010C9623969FAF8EAF239790E1490EB7
:1025F000511CE9A9FAA96191719181919191FAAB6C
:10260000E9AB2196EEADFFAD219781909190A1901D
:10261000B1902196FFAFEEAF2197A50194010E94E2
:1026200083390E945039EDADFEAD61937193819372
:102630009193FEAFEDAFEBADFCADC190D190E190C9
:10264000F190FCAFEBAF6C197D098E099F099B01DE
:10265000AC0197FF07C022273327A901261B370BA0
:10266000480B590BEFA9F8AD219331934193519346
:10267000F8AFEFAB2396EEADFFAD2397C080D180CE
:10268000E280F380C216D306E406F50610F4690171
:102690007A012396EEADFFAD2397C082D182E2820C
:1026A000F3820E94D537A50194010E942B37EDA932
:1026B000FEA96193719381939193FEABEDAB20E002
:1026C00030E0A9010E94213787FF0BC090E211235F
:1026D00021F090E8113009F490E4F2018081892B17
:1026E00080831F5F133009F084CF80E0CD28CE288F
:1026F000CF2809F4CBC0CE0185960E948D0A4B01EC
:102700005C012EE2229DC001239D900D11249C01AD
:10271000255C3D4F7901F901868E978EA0A2B1A26A
:10272000BE016B5D7F4F8DE096E00E94F808F701D7
:10273000628F738F848F958FBE016B5D7F4F81E0B9
:1027400096E00E94F808F70166A377A380A791A7F7
:10275000118910FF09C062A773A784A795A710C0AD
:102760002CE0E2E0F1E00FCFF301208131814281E2
:10277000538113FDA5C0F70122A733A744A755A78E
:1027800080913A02081711F011FFA0C08EE2829DDD
:10279000F001839DF00D1124E55CFD4F128A138A30
:1027A000148A158A12A213A214A215A28EE2829D87
:1027B0008001839D100D1124055C1D4FF801818956
:1027C00081FD63C089AD9AAD0E9402076B017C0157
:1027D00080901A0190901B01A0901C01B0901D01E7
:1027E000AC019B01C501B4010E94213787FF36C1AE
:1027F000A5019401C501B4010E948339F801668BDB
:10280000778B808F918F8EE2829D8001839D100D4A
:102810001124055C1D4FF80182A093A0A4A0B5A0CF
:10282000A501940166897789808D918D0E94433935
:1028300018162CF4F801868A978AA08EB18EC09261
:102840001A01D0921B01E0921C01F0921D018CE054
:10285000FE01B596AEE0B1E001900D928A95E1F7E8
:102860008CE0FE013D96A2E0B1E001900D928A95C8
:10287000E1F78091000180931B058F5F803109F49F
:1028800080E0809300010E948D0781E0CE5BDF4FE6
:102890000FB6F894DEBF0FBECDBFDF91CF911F9171
:1028A0000F91FF90EF90DF90CF90BF90AF909F90EF
:1028B0008F907F906F905F904F903F902F900895F2
:1028C000C501B4010E948339F70145CF2EE031E004
:1028D0003AAB29AB8E010F5F1F4F6BA97CA9645FD8
:1028E0007F4F7CAF6BAFC12CD12C76010DAB1FABF2
:1028F000E9A9FAA981909190A190B190FAABE9ABC6
:10290000EBA9FCA94190519061907190FCABEBABAD
:10291000A3019201C501B4010E9483399B01AC015E
:10292000C701B6010E942B366B017C01A501940101
:10293000C301B2010E942B36F80161937193819318
:1029400091938F012BAD3CAD6BA97CA9261737075E
:1029500079F62FEE3FEF4FE75FE3C701B6010E9424
:10296000433918164CF48EE2829DF001839DF00DE0
:102970001124E55CFD4F16CF2FEE3FEF4FE75FEBE5
:10298000C701B6010E94213787FF11C08EE2829DE8
:10299000F001839DF00D1124E55CFD4F89E996E778
:1029A000A6E9BEE782A393A3A4A3B5A3FFCE8DA9F6
:1029B0009FA90E948D0A6DA97FA98DE096E00E94D3
:1029C000F8084B015C01A701960160E070E080E827
:1029D0009FE30E942B3620E030E040E05FE30E945E
:1029E00083390E94223A6B017C0120912A063091A2
:1029F0002B0640912C0650912D06C501B4010E9472
:102A00008339A70196010E9483394B015C01A7011C
:102A1000960160E070E080E89FE30E942B369B0106
:102A2000AC01C501B4010E942B376B017C0120E091
:102A300030E0A9010E94213787FF03C0C12CD12CAF
:102A400076018EE2829DF001839DF00D1124E55CFC
:102A5000FD4FC2A2D3A2E4A2F5A2A8CEA70196017F
:102A6000C701B601C9CE019708F40895EFE9FFE068
:102A70003197F1F700C00000F6CF80916F008D7F95
:102A800080936F0080918100887F816080938100B6
:102A900010921502809128069091E6058F3FA1F4CF
:102AA0002091C605211110C0903881F490E00E9459
:102AB000331581E090913A0692FF02C091E0892798
:102AC000882331F0289A0895943081F780E0F2CF7E
:102AD00028980895CF93DF930E943D15E8E9F5E02B
:102AE0008BE2DF011D928A95E9F7C6E1D2E083E22D
:102AF000FE0111928A95E9F71092C4051092C30560
:102B000010921C051092420581E080931D051092E1
:102B100015020E94B503809114028F878BB1837ECA
:102B200090911302892B8BB98BB18F719091140204
:102B3000892B8BB9DF91CF9108958091C50584FDD4
:102B40001CC080E10E94E4020E94EB034398909134
:102B5000E605892F8C7221F48091EA05867069F070
:102B6000943049F48091C605811103C086E00E942B
:102B7000D4020C943D1583E0FACF08952F923F9232
:102B80004F925F926F927F928F929F92AF92BF927D
:102B9000CF92DF92EF92FF920F931F93CF93DF9329
:102BA000CDB7DEB7AE970FB6F894DEBF0FBECDBF80
:102BB0001091C6051123A9F081E08093E60585E612
:102BC00091E00E943605812F0E9411050E94440564
:102BD00084EF91E00E9433158FB7F8941092C605E8
:102BE0008FBF1091C505112309F4D2C214FF1CC078
:102BF00081E08093E705AE960FB6F894DEBF0FBE76
:102C0000CDBFDF91CF911F910F91FF90EF90DF909B
:102C1000CF90BF90AF909F908F907F906F905F907C
:102C20004F903F902F90089510FFC0C08CE0ECECC7
:102C3000F5E0DE01599601900D928A95E1F7BE010B
:102C4000675E7F4FCE010D960E944B038CE30E947E
:102C5000F1038091E605883009F426C108F001C12E
:102C6000813009F42AC108F41AC1823009F428C15C
:102C7000843009F41FC180912906282F2170922EDB
:102C800080FF33C18091F405882309F42EC180E9C7
:102C900091E00E943605CE010D960E94F8048091C5
:102CA000290681FF1DC084E891E00E9436059091BD
:102CB0001B0580913A02981708F465C1815F891B52
:102CC0000E9411058CE20E94F10380910B02909109
:102CD0000C02981708F459C18058891B0E941105ED
:102CE00080E891E00E9436058091E6058C7709F432
:102CF0004EC16091AF057091B0058091B105909182
:102D0000B2050E94DC040E944E09F82E0E9487033F
:102D1000082F0E941A04E82E8F2D802B8E2971F126
:102D20008BE791E00E943605EE2019F080E50E94C5
:102D3000F103FF2091F0F0FE03C088E50E94F1034B
:102D4000F1FE06C089E50E94F10381E30E94F103D0
:102D5000F2FE03C08AE50E94F103002379F000FF30
:102D600003C082E50E94F10301FF03C088E40E94D2
:102D7000F10302FF03C083E50E94F1038091F40593
:102D8000882309F408C181508093F4050091F3056C
:102D9000002309F419C101500093F3058EE30E944A
:102DA000F1030E94440581E00E94DA02812F887EAF
:102DB00009F49EC18091E605982F937009F087C1B0
:102DC0008872A9F08091E805807C89F40E949103C3
:102DD00082E08093EA058091E605803241F480E24A
:102DE00017FD0CC08091E80580688093E80580910C
:102DF000E605811103C091E09093E80516FF07C036
:102E000085FD05C08091E80580648093E80513FF87
:102E100009C00E94EB038091E605807E19F480E1F1
:102E20008093E60515FF53C181EC92E00E943605C0
:102E30008FE792E00E9436050E94B1068091E80576
:102E400087FD40C19091E605903409F038C183FFB9
:102E500004C0837E82608093E80580E48093E60569
:102E600031C1803221F198F4803109F004CF809192
:102E7000E80587FD1CC088EB91E00E943605809133
:102E8000E80580FF2EC080E30E94F103F4CE803479
:102E9000D1F0803809F0EFCE87E991E002C082ECF2
:102EA00091E00E943605E7CE8EEB91E0FACF84EBFD
:102EB00091E0F7CF8FEA91E0F4CF89EA91E0F1CF8A
:102EC00083EA91E0EECF8DE991E00E943605809192
:102ED000E80583FF02C083E3D7CF82FF04C085FFEC
:102EE000D2CF81E3D1CF82E3CFCF40908C065090F8
:102EF0008D0660908E0670908F06F4E7AF2EF6E098
:102F0000BF2ECE0101966C01FE013D967F0100E0CF
:102F1000F50161917191819191915F0120853185D8
:102F2000428553850E942C36F601619371938193FB
:102F300091936F01023041F4A30192010E942C365B
:102F400069877A878B879C87911012C0F601349726
:102F50002081318142815381F701608171818281B9
:102F600093810E942B36F701608371838283938360
:102F70000F5FF4E0EF0EF11C033051F6911087CE95
:102F800089E891E086CE81509ACE8150A6CE60E04D
:102F900070E0CB01B6CE8091E6058C7799F08DE19B
:102FA0008093F4058091F305811103C081E0809343
:102FB000F30585E791E00E943605CE0101960E9457
:102FC000F804E4CE89E0ECCF8091E6058C7709F433
:102FD00046C083E18093F30580E791E00E943605C7
:102FE0008091ED050E9411058CE20E94F103809111
:102FF000EE050E9411058CE20E94F1038091EF051D
:103000000E9411058CE20E94F1036091F00570911D
:10301000F10590E080E0611571058105910509F5E4
:1030200080E30E94F1032C9B45C02D9B45C052E0DC
:10303000F52E439B32C200E48CE691E00E943605F7
:10304000FF2031F0F1E083E5FF1283E40E94F103F9
:10305000002309F4A3CE86E40E94F1039FCE89E009
:10306000B9CFE12C6E0125E2C20ED11CEAE04E2E52
:10307000512C612C712C5601AE0CB11CA301920194
:103080000E94AC3AF5016083B901CA01E39461156D
:1030900071058105910579F7EC0CFD2CF11CCE141E
:1030A000DF0409F4C0CFF70182917F01805D0E94A7
:1030B000F103F5CFF12CBDCFFF24F394BACF9038B4
:1030C00009F0CBCE8091E80580628093E80517FF78
:1030D0000CC08091E605813029F48091E805856077
:1030E0008093E80580E88093E60588EE0E94DA0286
:1030F00011FF28C0812F887611F58091E605803474
:1031000041F48091E80585FD04C084FF24C110923C
:10311000E6058091E605882309F423C184FF0FC0EA
:103120009091E80590FF0BC0803109F01AC18091A1
:10313000F205882309F415C188608093F20582E0C6
:103140000E94DA0212FF24C09091E8058091E60502
:10315000807D09F41FC18091E90581111BC197FD94
:103160001BC10E94910380913A02809339020E9410
:103170008D078091EA0581FF05C09091E805916077
:103180009093E805897F8093EA0584E00E94DA0243
:103190009091C705992309F44CC08FB7F894109209
:1031A000C7058FBF4091ED05842F90FD84E691FD0A
:1031B000865F92FD8A5093FD8F5F94FD8150893C1C
:1031C00008F088EC8A3008F48AE03091EE05232F6D
:1031D00095FD24E696FD22E397FD29E1481302C000
:1031E000231739F18093ED052093EE051092F30536
:1031F00070903A0260901B05172D89E9282E96E7FA
:10320000392E26E9422E3EE7532E4EE2842E161129
:10321000DEC0C101D20180931A0190931B01A093DB
:103220001C01B0931D010E949103709239020E940B
:103230008D071091C805112309F445C08FB7F89484
:103240001092C8058FBF9091EF05892F10FD84E67D
:1032500011FD865F12FD8A5013FD8F5F14FD8150B2
:10326000893C08F088EC8A3008F48AE0981761F00D
:103270008093EF058091E6058111FFC0809158068B
:103280000E946C091092F30515FF0BC08091E605B2
:10329000803139F48091F2058111F5C082E080938C
:1032A000F205107C81F08091E605882311F0887387
:1032B00051F01091570616FFEAC01F7B812F0E9424
:1032C000700A109357062091C905222351F18FB738
:1032D000F8941092C9058FBF4091F0055091F10507
:1032E000CA0120FF02C084E690E021FD0A9622FD7B
:1032F0000A9723FD019624FD0197893EF3E09F077D
:1033000010F088EE93E08A30910510F48AE090E0A6
:103310004817590731F09093F1058093F00510920A
:10332000F30580918901882371F08FB7F89410928A
:1033300089018FBF80913B0680FDABC08160809387
:103340003B060E94EB038091E6058C7F09F453CC89
:103350000E94F90A50CC82FFDCCE88608093E80599
:10336000D8CE1092EA050E947507892B71F08091E2
:10337000E80586FD0AC01092E80588E08093E6051E
:103380000E94F90A0E94D203DACE1092E805109248
:10339000E605D5CE97FF0AC01092EA050E947C0A86
:1033A0000E946A150E94B8090E94E0068091E80513
:1033B00085FF08C08F7781608093E80580E4809363
:1033C000E605E3CE1092E8051092E605DECEA12ECA
:1033D000B12C189DC0011124855C9D4F0E940207ED
:1033E000962EC72ED82E092F9101A2010E94433993
:1033F0008A9C70018B9CF00C11249701255C3D4F39
:10340000790118168CF59101A201B101C2010E9447
:103410008339F701668B778B808F918F8A9CC001EF
:103420008B9C900D11249C01255C3D4F7901F90185
:1034300022A033A044A055A0A201910166897789FA
:10344000808D918D0E94433918162CF4F701268A3D
:10345000378A408E518E1F5F103109F410E0292CFD
:103460003C2C4D2C502ED3CE292D3C2D4D2D502FA4
:10347000692D7C2D8D2D902FCACF8091EA05886013
:103480008093EA05FFCE80FF0CCF846008CF1064E4
:1034900015CF8E7F80933B0656CFF110CDCD7ECCDD
:1034A0001F93CF93DF93142F20E030E040EA51E4E4
:1034B0000E9483390E940A370E94A437EB012097AB
:1034C000C9F08091E705811115C011110DC00E944E
:1034D0007E1A2FEF80E792E0215080409040E1F784
:1034E00000C000002197EBCF0E94BE158091E80537
:1034F00081FFEFCFDF91CF911F9108951F93CF935D
:10350000DF930E94BE158091E805882309F453C01B
:103510000E947507009771F58091580690915706A3
:10352000892BD82FD07311E0C82FC07C8091E8057B
:10353000882309F440C09091E70591113CC080FFB9
:1035400016C09091E605292F207C09F47BC082FDEE
:103550001AC01092F20580E00E946C0980E00E947F
:10356000700A8091E8058D7F84608093E8050E9451
:10357000BE15DCCFFC0191899073439902C080E0B5
:10358000CFCF80E4CDCF9038E9F481EC92E00E9477
:1035900036058CE392E00E9436050E94B10680E079
:1035A0000E946C0980E00E94700A0E943D15809183
:1035B000E705882321F0DF91CF911F9108950E94A4
:1035C000BE15F5CF903419F48F7D8093E805809176
:1035D000E80583FFCCCF90915806992359F081FDDF
:1035E00009C080913A0681FF22C08091EA05886077
:1035F0008093EA0580915706882371F08091E80551
:1036000081FD0AC08C2F0E94700A41E06DEC7CECB9
:103610008CEC9DE30E94501A8091E80581FDA7CFB4
:1036200080618093E80582E00E94E402A0CF8D2FA4
:103630000E946C0941E06DEC7CEC8CEC9DE30E94F7
:10364000501AD8CF8091F2058823A1F181FF0AC0DA
:1036500080915806882339F180E00E946C0910930C
:10366000F20585CF8C7009F482CF809158068823AB
:1036700099F081EC92E00E94360585E492E00E9488
:1036800036050E94B10680913A0681FF0FC08091F5
:10369000EA0588608093EA058091F20583FF03C004
:1036A00082E00E94E4021092F20561CF8D2F0E9409
:1036B0006C09F2CF8091EA0583FF59CF8D2F0E94CC
:1036C0006C098091EA05877F8093EA0550CF0E94BC
:1036D00085070E947E1A8091E705811108C00E942B
:1036E0007507892BB1F78091E605883091F308952D
:1036F000CF93DF9391E5899FE0011124DD5F40E5E1
:1037000050E0BE018BEC96E00E942E0A892B79F4E2
:103710001092CB060E94671B40E550E06BEC76E010
:10372000CE010E94DE0980E0DF91CF91089581E013
:10373000FBCF0E94671B1092F4050895CF939091E0
:10374000E605923039F0C82F0E94671B8C2FCF916D
:103750000C946C09CF9108950F931F93CF93C82FAA
:103760008B010E94671B2DE0C29FC00111244CE019
:1037700050E0B8019E5FCF911F910F910C94DE092C
:103780001F93CF93DF93182FEB018DE0189FB001AB
:1037900011247E5F4CE050E0CE010E942E0A892B5E
:1037A00071F48CE0FE0111928A95E9F7BE01812F38
:1037B0000E94AC1B80E0DF91CF911F91089581E0C2
:1037C000FACFEF92FF920F931F93CF93DF93CDB772
:1037D000DEB72C970FB6F894DEBF0FBECDBF182F03
:1037E00080FF0BC08AE5E7EDF1E0A5EFB5E00590BD
:1037F0000D928A95E1F70E94190A11FF10C0CE01BF
:1038000001967C018CE0F70111928A95E9F700E0BE
:10381000B701802F0E94AC1B0F5F0830C9F712FF61
:1038200014C060E080E093E00E94BE0960E081E0A7
:1038300093E00E94BE0960E081E593E00E94BE092A
:1038400060E082E593E00E94BE0913FF0AC060E0D9
:103850008EEA93E00E94BE0960E08FEA93E00E9446
:10386000BE092C960FB6F894DEBF0FBECDBFDF9118
:10387000CF911F910F91FF90EF900895EF92FF92DB
:103880000F931F93CF937C018B0180913A0685FFA4
:1038900025C0C091E605C03229F1C7010E94ED02A2
:1038A0008823E1F0C23009F442C081E08093E90549
:1038B000C83069F488E00E94E4020E947E1A809178
:1038C000E70581110BC08091E6058111F6CF0E94BA
:1038D0009D1582E00E94D4020E947E1A8091E60526
:1038E000823029F10E947E1A8091E70581111FC064
:1038F00090913A0280910001981303C00E948507BD
:10390000F1CFB801C7010E948D12811110C08091C2
:103910003A0681FF0CC0F801808584FF08C080E171
:10392000CF911F910F91FF90EF900C949E1BCF9120
:103930001F910F91FF90EF9008952F923F924F9219
:103940005F926F927F928F929F92AF92BF92CF922F
:10395000DF92EF92FF920F931F93CF93DF93CDB738
:10396000DEB7CC54D1090FB6F894DEBF0FBECDBF81
:10397000E0E9F6E08BE3DF011D928A95E9F78CE040
:10398000EFE4F6E0A1E9B6E001900D928A95E1F747
:103990008091CB068432A1F01A8E1BA2312C212CEF
:1039A0001EA61DA610E01B8E1F8EEE24E394F12CA4
:1039B0004AE0A42EB12C51E6852E53E0952E4EC13F
:1039C00081E0809391061092920683E08A8FB1E0A5
:1039D000BBA3E4CF9FEB9D0D9A3110F00C947B2A92
:1039E0008F5F8A8FBE016A5E7F4FCE014A960E942A
:1039F0000402882311F40C947E2A4E885F88688C18
:103A0000798CC301B2010E94663A0E94A437062F46
:103A100070E090E080E00E94D5379B01AC01C301CB
:103A2000B2010E942B3620E030E048EC52E40E94C4
:103A300083390E94F0390E94A437CB01E7E4DE16F7
:103A400029F1FDE4DF1609F465C1EAEBED0DE5317E
:103A500008F02CC00E2E000CFF0BEF5CF24E0C9405
:103A6000CE3AD31E561D001F0D1F181F231F2E1FD9
:103A7000561D321F561D401F561D4A1F541F5E1FE4
:103A8000561D561D561D6E1F7B1F881F083209F4D8
:103A9000DDC030F5043160F4013108F098C0043025
:103AA00009F474C0B0F00A3009F468C084E196C02B
:103AB0000C3109F463C040F40631C0F725E1201B46
:103AC0002093930626E087C00E3109F457C00632D2
:103AD00069F74F8D41110C94812AA2E0AF8F28C065
:103AE0000D3309F4AEC0E0F4053309F44FC088F497
:103AF0000B3211F00133D1F6BF8DB1110C94812A34
:103B0000013309F095C010929606E3E0EF8F28E0AC
:103B10004FC00C3358F606530093970629E05BC05C
:103B20000C3508F50A3508F073C0003509F0BECF32
:103B30000093910621E0063209F04DC084319105D1
:103B400051F08E31910539F08832910521F08233A0
:103B5000910509F0ABCFB5010E94983A6657609382
:103B6000910621E025C00C3549F00F3508F09ECFB5
:103B70002EE5201B2093920625E02DC0009731F4FE
:103B80002F8D21110C94812A31E03F8F00939006F4
:103B9000202F2D7F2C3119F020E00C35E1F4009717
:103BA00019F00A9709F082CF600F6093900620E029
:103BB000C70102C0880F991F2A95E2F72DA53EA5DF
:103BC00028233923232B09F443C085E107C0015181
:103BD0000093950622E0892B59F387E1C45BDF4F00
:103BE0000FB6F894DEBF0FBECDBFDF91CF911F910E
:103BF0000F91FF90EF90DF90CF90BF90AF909F908C
:103C00008F907F906F905F904F903F902F9008958E
:103C1000892B29F40A550093940623E0C9CF6A3012
:103C2000710509F043CF0A3509F440CF24E0C0CF35
:103C30000A9709F03BCFF1E0F093960623E02F8F2F
:103C400066CF892B09F032CF2AE0B2CF27E0C3CF6D
:103C5000ADA5BEA5A82BB92BBEA7ADA78A8DE82F11
:103C6000F0E0E553F94FD080D110B4CEBB8DBB232B
:103C700029F0EF8DE11102C0F2E0FF8F25FE0FC0A9
:103C80008091AE069091AF06A091B006B091B106BA
:103C900081389649A849B10514F00C948D2A3BA1AE
:103CA000332309F442C120FE52C180919306813032
:103CB000B1F423E333E34BEC51E460919D06709142
:103CC0009E0680919F069091A0060E948339609382
:103CD0009D0670939E0680939F069093A00630FCED
:103CE00010C080915B0690915C06A0915D06B0913A
:103CF0005E068093BA069093BB06A093BC06B09371
:103D0000BD0680919006843009F03CC126FC38C184
:103D10008CE164CF892B09F060CF063050F403307A
:103D200098F00430D9F080E10530C9F410929A0679
:103D300018C0083008F4BACE0A3048F10E3109F044
:103D4000B5CE0093980604C0002321F00130C9F7D6
:103D50008BE008C0B3E0B0939806FACF80E280937E
:103D60009A068CE0F70102C0EE0FFF1F8A95E2F77A
:103D7000CF012DA53EA52E233923232B09F025CFD6
:103D80002DA53EA52E2B392B3EA72DA767CF093099
:103D900039F0809199068064809399068DE0E2CF96
:103DA00010929906FBCF40929D0650929E0660921B
:103DB0009F067092A00680E06701082E02C0CC0C1E
:103DC000DD1C0A94E2F7960122213321232B11F006
:103DD0000C94872AD40102C0B595A7958A95E2F77D
:103DE000A0FF0BC020E030E0A901C301B2010E9496
:103DF000213787FF02C00C948A2A2C283D282ECF19
:103E0000002321F0013031F08DE0D6CF31E0309346
:103E10009B06FACF10929B06F7CF4092A1065092D4
:103E2000A2066092A3067092A406116081E0C4CF3E
:103E30004092A5065092A6066092A7067092A80628
:103E4000126082E0B9CF4092A9065092AA06609211
:103E5000AB067092AC06146083E0AECF0093AD0663
:103E600084E0AACFC301B2010E949D376093AE06E1
:103E70007093AF068093B0069093B10685E09CCF17
:103E80004092B2065092B3066092B4067092B506A4
:103E900086E092CF4092B6065092B7066092B8067E
:103EA0007092B90687E088CF4092BA065092BB065E
:103EB0006092BC067092BD0688E07ECF20E030E0C4
:103EC0004FE753E4C301B2010E944339181614F4BA
:103ED0000C94842A0093BE0689E06ECF4092BF0600
:103EE0005092C0066092C1067092C2064B8D41602E
:103EF0004B8F8AE061CF4092C3065092C406609215
:103F0000C5067092C6068B8D82608B8F8BE054CF76
:103F10004092C7065092C8066092C9067092CA06BF
:103F20009B8D94609B8F8CE047CF8091920681306F
:103F300081F44F8D423009F0D2CE809191068035C8
:103F400009F4CDCE882309F4CACE20FCC8CE86E180
:103F500045CE809150068111C2CE20FCA6CE809124
:103F60005F0690916006A0916106B0916206809311
:103F70009D0690939E06A0939F06B093A006AFCE99
:103F8000E89426F880919506882359F0813009F449
:103F9000BBC022961FAE2297A2E0ABAFB1E0B9AF93
:103FA00007C082E022968FAF229791E09BAF19AEB7
:103FB00080919306813071F520E9C22E26E0D22E41
:103FC000F12CE12C2B8DA22EB12CC5010E2C02C0A0
:103FD000959587950A94E2F780FF12C023E333E3B7
:103FE0004BEC51E4D6019F966D917D918D919C9102
:103FF000D2970E948339F60167A770AB81AB92AB71
:10400000FFEFEF1AFF0A24E0C20ED11C33E0E316E3
:10401000F104D9F64F8D433049F4809196068130F2
:1040200029F48B8D843011F00C94902A8CE0E4E715
:10403000F6E0DE01119601900D928A95E1F7ADA5AB
:10404000BEA5B1FD69C0009190060A3009F478C0A0
:104050000C3509F419C19F8D933009F43FC0AB8D25
:10406000AA23E1F1B0919406BFA380918C069091B0
:104070008D06A0918E06B0918F0689A79AA7ABA74F
:10408000BCA7EFE4AE2EE6E0BE2EF0E9CF2EF6E0C0
:10409000DF2EF12CE12C9B8D892E912CC4010E2C4E
:1040A00002C0959587950A94E2F780FD5DC1F50100
:1040B000818D928DA38DB48DF60187A790ABA1ABB6
:1040C000B2ABFFEFEF1AFF0A24E0A20EB11C34E0FE
:1040D000C30ED11C43E0E416F10401F70E3109F4DC
:1040E00094C1053309F4B8C161EA76E086E00C3189
:1040F00009F02DC10E94C01B882301F18B8D811115
:1041000088C119A61F8EA9C0E1E02296EFAF2297C1
:104110001BAEF2E0F9AF4CCF80919706873010F0DC
:104120008DE15CCD90915506891709F48CCFBE01C5
:104130006F5F7F4F0E94C01B811185CF87E04ECDFE
:10414000BB8DB11102C08AE149CDC10180759927AB
:10415000892B09F4DDCD6091B2067091B306809190
:10416000B4069091B5060E94663A0E94A437673063
:10417000B8F68091AD06843129F0823009F096CCF2
:1041800027FC94CC662309F474C0615069A761EAE6
:1041900076E089A50E94C01B882381F20091AD06BC
:1041A00040908C0650908D0660908E0670908F0621
:1041B00090E9C92E96E0D92EF12CE12C3B8D232FCE
:1041C00030E038A72FA38FA198A50E2C02C095959B
:1041D00087950A94E2F780FF33C0D6019F968D90B1
:1041E0009D90AD90BC90D297043109F046C0F70184
:1041F000EE0FFF1FEE0FFF1FE15BF94F21A932A960
:1042000043A954A9618D728D838D948D0E942B36A4
:10421000A50194010E942B36F601618B728B838B72
:10422000948BF2E0EF120CC0A30192010E942B3696
:104230006093A9067093AA068093AB069093AC0690
:10424000BFEFEB1AFB0AE4E0CE0ED11CF3E0EF1651
:10425000F10409F0B8CF2FEA2222809191068FA3B2
:10426000803509F000C19B8D992309F406C18FE1C7
:10427000B5CCE0919706E9A78ACF51968D929D9291
:10428000AD92BC925497DCCF3B8D332309F45BCFC6
:1042900040908C0650908D0660908E0670908F0630
:1042A000AFE48A2EA6E09A2ECE0101967C01B0E9F9
:1042B000AB2EB6E0BB2ED12CC12CA32FB0E0B8A7FB
:1042C000AFA38FA198A50C2C02C0959587950A9451
:1042D000E2F780FF3EC0F7012081318142815381A6
:1042E000D40159966D917D918D919C915C970E941E
:1042F0002B36F50127A530A941A952A90E942B36DA
:10430000D5019F966D937D938D939C93D297B2E048
:10431000CB120CC0A30192010E942B366093C706FA
:104320007093C8068093C9069093CA06FFEFCF1A10
:10433000DF0A24E0820E911C34E0E30EF11C44E01D
:10434000A40EB11C83E0C816D10409F0BACF19A697
:1043500084CFF40181A992A9A3A9B4A9F50187A7E3
:1043600090ABA1ABB2ABE2CF053309F4AACED60134
:104370009F964D905D906D907C90D297BFA1B111AA
:1043800033C0F701EE0FFF1FEE0FFF1F21E030E0FB
:104390002C0F3D1FE20FF31FD501D1962D913D91BA
:1043A0004D915C91D49760817181828193810E944B
:1043B0002C36A30192010E942C36F60167A770AB40
:1043C00081AB92ABF2E0EF127CCE29A53AA54BA5CA
:1043D0005CA50E942C366093C7067093C806809334
:1043E000C9069093CA066DCEA3019201D5015996D4
:1043F0006D917D918D919C915C970E942C36F60178
:1044000067A770AB81AB92AB5CCE61EA76E087E0E8
:1044100071CEAFE4B6E0E0E9F6E090E080E04B8DED
:10442000242F30E0A901082E02C0559547950A9423
:10443000E2F740FD0AC059964D915D916D917C91D6
:104440005C97418B528B638B748B019614963496D8
:104450008330910539F77BCF80919106823008F443
:1044600076CF8EE1BBCBAF8DA23039F4BFA1B111B5
:1044700077C0EB8DEE2309F491C02BA12170EBA145
:10448000C101E0FFD1C28E7DFF8DF111937E0097B7
:1044900029F09F7D892B11F00C94992A8E01035FDE
:1044A0001F4F89E0D8011D928A95E9F7222309F46C
:1044B000BEC28DA59EA5867B892B11F00C949C2AEB
:1044C00080919006853319F081110C949C2A80917B
:1044D0005B0690915C06A0915D06B0915E06898BAB
:1044E0009A8BAB8BBC8B8091580690915706892B89
:1044F00040919D0650919E0660919F067091A00686
:104500004D875E876F87788B84608D8B80913A06AC
:1045100085FF07C08FEB96E00E94ED0281110C949D
:104520009F2AB8018FEB96E00E943E1C8091E60521
:1045300081110BC00E947507892B39F080E28093AE
:10454000E6050E94F90A0E94D2038CE0EFEBF6E048
:10455000A8E6B6E001900D928A95E1F780E03ECBA7
:1045600020E030E0A90160919D0670919E06809147
:104570009F069091A0060E942137882309F4E7CC7A
:10458000FFA1FC38B9F060F4F23059F1F33061F179
:10459000F13009F072CF3B8D31116FCF1F8E6DCF8F
:1045A0002FA12E3839F018F02F3809F066CF9BA1D3
:1045B00090619BA38FA18E58823018F4ABA1A860A4
:1045C000ABA3BB8DBB2309F4BECD4CE050E06FEB39
:1045D00076E088E696E00E94EE3A892B09F04DCF0E
:1045E0006BC04BA144604BA38B8D882309F4ABCDEA
:1045F000B9ADAB2FB0E0BEABADABFBADEF2FF0E094
:10460000FEAFEDAF81E090E07C0109AC02C0EE0CA2
:10461000FF1C0A94E2F70BAC02C0880F991F0A94A2
:10462000E2F7E82AF92A2B8D822F90E08E219F2134
:10463000892B09F478C7CD01880F991F880F991F1E
:10464000FC01E057F94F815B994FDC0159962D91A0
:104650003D914D915C915C9767A570A981A992A944
:104660000E942B362B013C018DAD9EAD880F991F0A
:10467000880F991FFC01E057F94F815B994FDC01CE
:1046800059962D913D914D915C915C9767A570A9CC
:1046900081A992A90E942B364B015C0127FEF6C02E
:1046A000E89427F84CE050E06FEB76E088E696E07F
:1046B0000E94EE3A892B11F481E290CA6091B6060D
:1046C0007091B7068091B8069091B9062091930633
:1046D000213071F423E333E34BEC51E40E9483393E
:1046E0006093B6067093B7068093B8069093B906A8
:1046F0008091B6069091B706A091B806B091B90620
:1047000089AB9AABABABBCABA3019201C301B201C5
:104710000E94833929966CAF7DAF8EAF9FAF2997EA
:10472000A5019401C501B4010E9483392D966CAF97
:104730007DAF8EAF9FAF2D9720E030E040E850E492
:1047400069A97AA98BA99CA90E94833929A93AA9A8
:104750004BA95CA90E94833929962CAD3DAD4EAD85
:104760005FAD29970E942B362D962CAD3DAD4EADF9
:104770005FAD2D970E942B366B017C0120E030E06D
:10478000A9010E94213787FDD1C6C701B6010E9449
:10479000223A6B017C012D962CAD3DAD4EAD5FAD47
:1047A0002D9729966CAD7DAD8EAD9FAD29970E945A
:1047B0002C360E94223A9B01AC01C701B6019058E9
:1047C0000E942B376B017C019FA1933021F4F7FAF3
:1047D000F094F7F8F09420E030E0A90169A97AA9F3
:1047E0008BA99CA90E94213787FF11C0F7FAF0948A
:1047F000F7F8F09489A99AA9ABA9BCA9B0588093FD
:10480000B6069093B706A093B806B093B9060DA963
:104810001EA9000F111F000F111F0C56194FA701E1
:104820009601C501B4010E9483399B01AC01C3010B
:10483000B2010E942B3620E030E040E05FE30E94AE
:104840008339D8011D966D937D938D939C935097DA
:104850000DAD1EAD000F111F000F111F0C56194F8B
:10486000A7019601C301B2010E948339A5019401F9
:104870000E942C3620E030E040E05FE30E94833964
:10488000F801658776878787908BF7CDC12ED12C6D
:10489000E122FD2083E2EF2809F4A0C9F1EF2F22E5
:1048A00080919306813041F500E916E0F12CE12C6E
:1048B000C6010E2C02C0959587950A94E2F780FFF9
:1048C00012C023E333E34BEC51E4D80151966D91D0
:1048D0007D918D919C9154970E948339F801618B51
:1048E000728B838B948BFFEFEF1AFF0A0C5F1F4FC5
:1048F00023E0E216F104E1F6EDA9FEA9EE0FFF1F99
:10490000EE0FFF1FEC56F94FC584D684E784F0887C
:10491000A7019601C301B2010E942B362B013C0175
:10492000EDADFEADEE0FFF1FEE0FFF1FEC56F94F82
:1049300085859685A785B08989AB9AABABABBCABB7
:104940009C01AD01C501B4010E942B364B015C01F5
:10495000A3019201C301B2010E9483392B013C01E2
:10496000A5019401C501B4010E9483399B01AC01EA
:10497000C301B2010E942C360E94223A4B015C0115
:10498000A7019601C701B6010E9483396B017C0122
:1049900029A93AA94BA95CA9CA01B9010E94833986
:1049A0009B01AC01C701B6010E942C360E94223A3D
:1049B0006B017C01C092B606D092B706E092B806B1
:1049C000F092B906AC019B01C501B4010E942B36DF
:1049D0004B015C01E894B7F82AE037ED43E25CE371
:1049E000C501B4010E94433918160CF046CD20E0F1
:1049F00030E040E05FE3C501B4010E94433918167E
:104A00000CF45ACE2FE632E143E05BE3C701B60176
:104A10000E9483399B01AC01C501B4010E94433956
:104A200018160CF02ACD48CE8E7D9C7F2DCD80911E
:104A30003A06F090580681FF12C08FA18150833052
:104A400018F0BBA1B064BBA3EB8DEE2309F459C1F0
:104A5000FF8DF23009F055C12BA120682BA3809166
:104A6000AE069091AF06A091B006B091B1068093CA
:104A7000640690936506A0936606B09367068091DE
:104A8000920680935006882311F088E08D8B8091E8
:104A90009D0690919E06A0919F06B091A0068093DE
:104AA0005F0690936006A0936106B09362068D87BF
:104AB0009E87AF87B88B2091BA063091BB06409194
:104AC000BC065091BD0660915B0670915C068091BA
:104AD0005D0690915E060E942137811103C09BA163
:104AE00095FF15C0FF2019F08F2D0E949E1B80910D
:104AF000BA069091BB06A091BC06B091BD0680930A
:104B00005B0690935C06A0935D06B0935E06ABA136
:104B1000A6FD0CC080915B0690915C06A0915D069D
:104B2000B0915E06898B9A8BAB8BBC8B8091BE0655
:104B30008093630680919A0690915806981731F0F9
:104B40000E949E1B80919A06809358068D899091B1
:104B50005806892B8D8B9091590680919B0698174A
:104B600061F00E94671B80919B068111E1C00E9449
:104B7000B10280919B0680935906F090990680912E
:104B800057068F1569F08091E605823029F00E9462
:104B9000671B8F2D0E94700A80919906809357069B
:104BA0008D8990915706892B8D8B8091900684304A
:104BB00049F58091E605823029F18090B206909007
:104BC000B306A090B406B090B5060E94671B609132
:104BD000F0057091F10590E080E00E94D3376B0101
:104BE0007C012AE037ED43E25CE3C501B4010E9499
:104BF00083399B01AC01C701B6010E94833940E0B3
:104C00000E94501A809195068093530680919306D6
:104C100080935106BF8DB33071F5809196068093D5
:104C20005406811108C01092C7061092C80610924F
:104C3000C9061092CA06C090C706D090C806E09078
:104C4000C906F090CA06A701960160918C06709182
:104C50008D0680918E0690918F060E9421378823C1
:104C600051F0C0928C06D0928D06E0928E06F092A2
:104C70008F060E94991B8091970690915506981770
:104C800069F0809355068CE0FE013196A4E7B6E00A
:104C900001900D928A95E1F70E94991B80919406EC
:104CA0008093520680919006863209F488C008F0FD
:104CB00049C08C3109F469C08E3109F466C08A306C
:104CC00009F44DC08091910680934F06803509F418
:104CD00056C3BF8DB23009F052C3813009F083C092
:104CE000BE01635F7F4F8FEB96E00E943E1C8CE01D
:104CF000EFEBF6E0A8E6B6E001900D928A95E1F7B9
:104D00003EC330E1F312ABCE9BA1907480914F066D
:104D10008150833038F4992309F4A1CE4BA140622D
:104D20004BA39DCE91119BCE8BA180628BA397CE7E
:104D300081E08093E5050E94E80190E080E00E9418
:104D4000A00117CF8C3509F440C0863609F443C062
:104D5000883209F0B7CF68E676E087E033C061EAD1
:104D600076E089A50E94AC1B80915506E9A5E81361
:104D7000A9CF8CE0E1EAF6E0A4E7B6E001900D925D
:104D80008A95E1F70E94991B9DCF8D8981608D8B5B
:104D9000FF8DFF2329F0B8018FEB96E00E943E1CA7
:104DA000B80181EA96E00E943E1C8CE0E1EAF6E060
:104DB000A8E6B6E001900D928A95E1F783CF68E608
:104DC00076E086E00E94AC1B7DCF8CE0EFEBF6E056
:104DD000A0E8B6E0D3CFE0E8F6E08CE0DF011D927A
:104DE0008A95E9F7CFCF811105C08D8981608D8BC0
:104DF000B80179CF8250823008F097C28091B60610
:104E00009091B706A091B806B091B9068F8F98A37C
:104E1000A9A3BAA3A9AD94E0A99F70011124F70139
:104E2000E859F94FF8A7EFA397012F55394F3AA743
:104E300029A7D9014D905D906D907C9020813181A2
:104E400042815381C301B2010E942C366DA77EA717
:104E50008FA798ABEBADB4E0EB9F800111249801D4
:104E60002859394F3AAF29AFC8018F55994F9CAF98
:104E70008BAFDC018D909D90AD90BC90F9012081AD
:104E8000318142815381C501B4010E942C3669AB46
:104E90007AAB8BAB9CAB77FA709477F87094D501B2
:104EA000C401B0588B8F9C8FAD8FBE8FF701E1543A
:104EB000F94F2DA53EA54FA558A96081718182812A
:104EC00093810E942B366B017C01F801E154F94F6C
:104ED00029A93AA94BA95CA960817181828193813A
:104EE0000E942B364B015C01A7019601C301B20160
:104EF0000E9483396DAB7EAB8FAB98AFA501940157
:104F00006B8D7C8D8D8D9E8D0E9483399B01AC01B4
:104F10006DA97EA98FA998AD0E942C366DAB7EAB92
:104F20008FAB98AFA5019401C301B2010E948339F0
:104F30004B015C01A70196016B8D7C8D8D8D9E8D43
:104F40000E9483399B01AC01C501B4010E942B363C
:104F50002DA93EA94FA958AD0E94AB366B017C012B
:104F60009BA192FF68C12DEB37E346E055EBC701EB
:104F7000B6010E94433987FD0AC02BED3FE049ECA2
:104F800050E4C701B6010E942B366B017C01809072
:104F90002E0690902F06A0903006B09031062F8DEF
:104FA00038A149A15AA1CA01B9010E942C36A50114
:104FB00094010E942B36A50194010E9483390E941E
:104FC000223A4B015C0120E030E040E05FE3C701A2
:104FD000B6010E9483392F8D38A149A15AA10E94A0
:104FE00083399F77A50194010E942B370E941038C6
:104FF0000E94A4377EAB6DABDB01AB2B09F470CE06
:105000001D8990E080E00E94D3374B015C0113FFC3
:105010000EC0AC019B016D857E858F8598890E94AD
:1050200083396D877E878F87988B177F1D8BA501AE
:105030009401C701B6010E942B376BA37CA38DA3FB
:105040009EA32296EFAD2297B4E0EB9FC0011124FE
:105050008C010859194F8154994FD8012D913D91D8
:105060004D915C91FC0160817181828193810E94EC
:105070002B36A50194010E942B3729966CAF7DAF8A
:105080008EAF9FAF29972BA13CA14DA15EA1CA0174
:10509000B9010E9483399B01AC0160E070E080E0BF
:1050A00090E40E942B366B017C012BEA3AEA4AE23B
:1050B0005EE36BA17CA18DA19EA10E9483394B016F
:1050C0005C0120E030E040E850E4C701B6010E94F6
:1050D0002C369B01AC01C501B4010E948339219695
:1050E0006CAF7DAF8EAF9FAF219720E030E040E006
:1050F0005FE3C701B6010E94833925966CAF7DAF8F
:105100008EAF9FAF25971F8E22242394312CEDA9BB
:10511000FEA9E215F30509F4E3CDFF8DFC3008F09C
:105120009EC0A301920121966CAD7DAD8EAD9FAD69
:1051300021970E9483396B017C012B8D3C8D4D8D15
:105140005E8D25966CAD7DAD8EAD9FAD25970E9491
:1051500083399B01AC01C701B6010E942C367B014B
:105160006C01A301920125966CAD7DAD8EAD9FAD16
:1051700025970E9483394B015C012B8D3C8D4D8D11
:105180005E8D21966CAD7DAD8EAD9FAD21970E9459
:1051900083399B01AC01C501B4010E942B362B0160
:1051A0003C012F8D2F5F2F8F470156018B8E9C8ED8
:1051B000AD8EBE8EA30192016DA57EA58FA598A987
:1051C0000E942C36EFA1F8A56083718382839383BC
:1051D0002B8D3C8D4D8D5E8D69A97AA98BA99CA9DB
:1051E0000E942C36A9ADBAAD6D937D938D939C939F
:1051F000139729962CAD3DAD4EAD5FAD2997F801C3
:1052000060817181828193810E942C36D8016D93D7
:105210007D938D939C931397BE01635F7F4F88E6C8
:1052200096E00E943E1C8091E705811160CDBFEFA2
:105230002B1A3B0A6CCF2DEB37E346E055E3C70151
:10524000B6010E94213718160CF4A1CE2BED3FE0D9
:1052500049EC50E4C701B6010E942C3696CEB1014C
:1052600090E080E00E94D3372BA13CA14DA15EA12C
:105270000E9483396B017C010E9426376B8F7C8FE3
:105280008D8F9E8FC701B6010E94143A4B015C01BD
:10529000A9A5BAA5CD90DD90ED90FC90F7FAF09419
:1052A000F7F8F094ABADBCAD8D919D910D90BC9194
:1052B000A02D8F8F98A3A9A3BAA3A70196016B8DE8
:1052C0007C8D8D8D9E8D0E9483392B013C012F8D0D
:1052D00038A149A15AA1C501B4010E9483399B019B
:1052E000AC01C301B2010E942C362B013C01A70185
:1052F0009601C501B4010E9483396B017C012F8D99
:1053000038A149A15AA16B8D7C8D8D8D9E8D0E94F7
:1053100083399B01AC01C701B6010E942B366B8F0C
:105320007C8F8D8F9E8F1F8E45CF8D8984608D8B56
:105330008091E605823009F4DACC0E94671B8091E7
:10534000E70581111CC0FF24F394FBA1F870AF2E78
:105350002BA123FFF12C3BA13071B32E1092EB0552
:105360008F2D0E9420040E941A04882319F184E0E2
:105370000E94D4020E947E1A80E00E942004809144
:10538000980680935606882311F40C94EE1D0E9413
:10539000671B909156068091E605933009F07EC018
:1053A000823029F088E00E94E4020E947E1A109266
:1053B0005606D4C8F092CA0560914B0670914C060F
:1053C00080914D0690914E060E94A4376B0199245E
:1053D0009394B8018FEB96E00E943E1C1092CB058F
:1053E0009092E40582E00E94E4020E947E1A80917D
:1053F000E7058111C4CF8091E6058111F6CFA11098
:1054000027C08091E405813009F044C0BB20F1F150
:105410008CE0ECECF5E0A8EDB5E001900D928A95FA
:10542000E1F71092E40580E00E9420040E947E1AB9
:105430000E946A150E947C0A0E94E0060E94B6063D
:105440008091EB05882309F452CC0E94B80997CFCC
:105450008091E4058111D5CFF12CE12C03C04FEFF1
:10546000E41AF40ACE14DF0461F20E947E1A81E08D
:1054700090E00E9433150E941A048111F0CF0E941F
:105480006A150E947C0A0E94E006A3CF85E00E9474
:10549000D402C7CF81E08093EB05C3CF91E0909316
:1054A0004F06109253061092520610925006109218
:1054B00055061092580610925706823089F064E71C
:1054C00076E080E00E94C01B882311F40C949E209B
:1054D0000E94991B80E00E946C0980E00E94700A83
:1054E00081EC92E00E9436058AE692E00E94360541
:1054F0000E94B1065CCF81E00C94EE1D82E00C941A
:10550000EE1D88E10C94EE1D86E20C94EE1D89E1FF
:105510000C94EE1D84E00C94EE1D8BE10C94EE1DBA
:1055200085E20C94EE1D80E20C94EE1D82E20C9458
:10553000EE1D84E20C94EE1D80E10C94EE1D8FE0D4
:105540000C94EE1DCF93DF93C0E08C2F0E94781B4C
:10555000811114C01092CB068EE30E94F1030E94C9
:105560000D048AE30E94F10387E00E944805C130E0
:1055700019F4DF91CF910895C1E0E7CF8091CB0678
:105580008823A9F30E949D1CD82F8EE30E94F1036B
:105590000E940D048AE30E94F1038D2F0E9454059E
:1055A000E6CF1F920F920FB60F9211242F933F93C5
:1055B0004F935F936F937F938F939F93AF93BF931B
:1055C000EF93FF930E948703882321F080FF13C08D
:1055D0000E949D15FF91EF91BF91AF919F918F9187
:1055E0007F916F915F914F913F912F910F900FBEDF
:1055F0000F901F90189582FF06C08091C5058260AC
:105600008093C505E7CF81FFE5CF8091C505886010
:10561000F7CF1F920F920FB60F9211248F939F9383
:105620009BB1809113028C71937E892B8BB915BC31
:105630009F918F910F900FBE0F901F9018951F9202
:105640000F920FB60F9211240F931F932F933F9336
:105650004F935F936F937F938F939F93AF93BF937A
:10566000CF93DF93EF93FF938091150281112FC2A7
:105670009BB180912502807E9F71892B8BB98BB164
:10568000837E90912402892B8BB98091230286BD61
:1056900082E085BD81E0809315027894209181009D
:1056A00027708091110290911202213009F0F9C106
:1056B000209188003091890066E0369527956A959B
:1056C000E1F7820F931F9093120280931102809151
:1056D000370290913802892B09F0A1C080911C05F6
:1056E00090914205981709F4EDC1E0911C052E2F09
:1056F00030E086E0E89FF0011124E25EFA4FF0937B
:105700003802E093370282819381909389008093DD
:105710008800808191819093330280933202E481EA
:10572000809134028E1761F1E093340281E1E89FA9
:10573000F0011124ED5BFA4FF0933602E09335024D
:1057400084859585A685B785B695A7959795879500
:1057500080931E0290931F02A0932002B093210217
:1057600080931A0290931B02A0931C02B0931D0217
:105770008093160290931702A0931802B093190217
:10578000E0913502F09136028089909114028927C8
:105790008093250286E0829FD001839FB00D112463
:1057A000A25EBA4F15962C9180819181A281B3811E
:1057B000022E04C0B695A795979587950A94D2F7BF
:1057C0008093260290932702A0932802B093290287
:1057D00084819581A681B781022E04C0B695A795D4
:1057E000979587950A94D2F780932A0290932B027B
:1057F000A0932C02B0932D0280859185A285B3855C
:1058000004C0B695A795979587952A95D2F780936A
:105810002E0290932F02A0933002B0933102109188
:10582000E405113089F5C0911102D09112020E9455
:105830001A04882309F467C18091CA05811112C036
:105840008091CB05882309F457C180910F02909174
:105850001002C81BD90B80910D0290910E02C8173F
:10586000D90790F01092CB051092E4058CE0ECEC97
:10587000F5E0A8EDB5E001900D928A95E1F78091F1
:10588000C50580648093C50510922402809116029C
:1058900090911702A0911802B0911902409126022E
:1058A000509127026091280270912902840F951F60
:1058B000A61FB71F8093160290931702A093180299
:1058C000B0931902E0913502F09136024485558576
:1058D00066857785481759076A077B0728F524E00E
:1058E00020932402841B950BA60BB70B8093160202
:1058F00090931702A0931802B09319028091CC05DF
:105900009091CD05A091CE05B091CF05208925FFBE
:10591000FDC00197A109B1098093CC059093CD05F5
:10592000A093CE05B093CF0580911A0290911B02EF
:10593000A0911C02B0911D0200912A0210912B022D
:1059400020912C0230912D02800F911FA21FB31FB6
:1059500080931A0290931B02A0931C02B0931D0225
:10596000481759076A077B0738F5209124022860F9
:1059700020932402841B950BA60BB70B80931A026D
:1059800090931B02A0931C02B0931D028091D0053E
:105990009091D105A091D205B091D305208926FF21
:1059A000B9C00197A109B1098093D0059093D105A1
:1059B000A093D205B093D30580911E0290911F024F
:1059C000A0912002B091210200912E0210912F028D
:1059D0002091300230913102800F911FA21FB31F1E
:1059E00080931E0290931F02A0932002B093210285
:1059F000481759076A077B0738F520912402206170
:105A000020932402841B950BA60BB70B80931E02D8
:105A100090931F02A0932002B09321028091D4059D
:105A20009091D505A091D605B091D705208927FF83
:105A300075C00197A109B1098093D4059093D5054C
:105A4000A093D605B093D7058091E605843039F44C
:105A50008091EC0590912402892380932402809107
:105A60003202909133020197909333028093320275
:105A7000892B69F4109238021092370280911C052C
:105A80008F5F80931C05863011F410921C05809165
:105A90002402909113028927809324021092150208
:105AA00016C0223051F4209188003091890053E0D3
:105AB000369527955A95E1F704CE209188003091CC
:105AC0008900FFCD0E943D1584E00E94E402FF9111
:105AD000EF91DF91CF91BF91AF919F918F917F9186
